:020000040000fa
:080000000001040000000000f3
:020000040000fa
:04000800d80100001b
:020000040000fa
:04000c00d801000017
:020000040000fa
:04001000d801000013
:020000040000fa
:04001400d80100000f
:020000040000fa
:04001800d80100000b
:020000040000fa
:04001c00d801000007
:020000040000fa
:04002000d801000003
:020000040000fa
:04002400d8010000ff
:020000040000fa
:04002800f4160000ca
:020000040000fa
:04002c00d8010000f7
:020000040000fa
:04003000d8010000f3
:020000040000fa
:04003400d8010000ef
:020000040000fa
:04003800d8010000eb
:020000040000fa
:04003c00d8010000e7
:020000040000fa
:040040002e15000079
:020000040000fa
:04004400d8010000df
:020000040000fa
:04004800d8010000db
:020000040000fa
:04004c00f21a0000a4
:020000040000fa
:04005000321a000060
:020000040000fa
:040054007c0d00001f
:020000040000fa
:04005800d8010000cb
:020000040000fa
:04005c00d8010000c7
:020000040000fa
:04006000d8010000c3
:020000040000fa
:04006400d8010000bf
:020000040000fa
:04006800d8010000bb
:020000040000fa
:04006c00d8010000b7
:020000040000fa
:04007000d8010000b3
:020000040000fa
:04007400d8010000af
:020000040000fa
:04007800d8010000ab
:020000040000fa
:04007c00d8010000a7
:020000040000fa
:04008000d8010000a3
:020000040000fa
:04008400d80100009f
:020000040000fa
:040088002e1b00002b
:020000040000fa
:04008c00921a0000c4
:020000040000fa
:04009000d801000093
:020000040000fa
:04009400d80100008f
:020000040000fa
:04009800d80100008b
:020000040000fa
:04009c00d801000087
:020000040000fa
:0400a000d801000083
:020000040000fa
:0400a400d80100007f
:020000040000fa
:0400a800d80100007b
:020000040000fa
:0400ac00d801000077
:020000040000fa
:0400b000d801000073
:020000040000fa
:0400b400d80100006f
:020000040000fa
:0400b800d80100006b
:020000040000fa
:0400bc00d801000067
:020000040000fa
:0400c000d801000063
:020000040000fa
:0400c400d80100005f
:020000040000fa
:0400c800d80100005b
:020000040000fa
:0400cc00d801000057
:020000040000fa
:0400d000d801000053
:020000040000fa
:0400d400d80100004f
:020000040000fa
:0400d800d80100004b
:020000040000fa
:04010800d80100001a
:020000040000fa
:04010c00d801000016
:020000040000fa
:04011000d801000012
:020000040000fa
:04011400d80100000e
:020000040000fa
:04011800d80100000a
:020000040000fa
:04011c00d801000006
:020000040000fa
:04012000d801000002
:020000040000fa
:04012400d8010000fe
:020000040000fa
:04012800d8010000fa
:020000040000fa
:04012c00d8010000f6
:020000040000fa
:04013000d8010000f2
:020000040000fa
:04013400d8010000ee
:020000040000fa
:04013800d8010000ea
:020000040000fa
:04013c00d8010000e6
:020000040000fa
:04014000d8010000e2
:020000040000fa
:04014400d8010000de
:020000040000fa
:04014800d8010000da
:020000040000fa
:04014c00d8010000d6
:020000040000fa
:04015000d8010000d2
:020000040000fa
:04015400d8010000ce
:020000040000fa
:04015800d8010000ca
:020000040000fa
:04015c00d8010000c6
:020000040000fa
:04016000d8010000c2
:020000040000fa
:04016400d8010000be
:020000040000fa
:04016800d8010000ba
:020000040000fa
:04016c00d8010000b6
:020000040000fa
:04017000d8010000b2
:020000040000fa
:04017400d8010000ae
:020000040000fa
:04017800d8010000aa
:020000040000fa
:04017c00d8010000a6
:020000040000fa
:04018000d8010000a2
:020000040000fa
:04018400d80100009e
:020000040000fa
:04018800d80100009a
:020000040000fa
:04018c00d801000096
:020000040000fa
:04019000d801000092
:020000040000fa
:04019400d80100008e
:020000040000fa
:04019800d80100008a
:020000040000fa
:04019c00d801000086
:020000040000fa
:0401a000d801000082
:020000040000fa
:0401a400d80100007e
:020000040000fa
:0401a800d80100007a
:020000040000fa
:0401ac00d801000076
:020000040000fa
:0401b000d801000072
:020000040000fa
:0401b400d80100006e
:020000040000fa
:0401b800d80100006a
:020000040000fa
:0401bc00d801000066
:020000040000fa
:0401c000d801000062
:020000040000fa
:0401c400d80100005e
:020000040000fa
:0401c800d80100005a
:020000040000fa
:0401cc00d801000056
:020000040000fa
:0401d000d801000052
:020000040000fa
:0401d400d80100004e
:020000040000fa
:0401d800d80100004a
:020000040000fa
:100200000f2321000e7f22000e0188000000000055
:10021000000020000000e000020032000001200089
:1002200020028800140007008c0007000000e00096
:1002300003003a00208e2100010020000200370058
:100240000000200001002000810f7000010032003a
:1002500014000700000020000000e000020032004f
:100260000000020000000000101802000000000062
:100270000040da000000fe004440a9000000200019
:100280000000e0000300320000002000a001880010
:100290004440a800000006008a1f78008b1f7800e9
:1002a0000000060091018800800478000000eb0047
:1002b0001a003700e284440032a0b4009905ba0065
:1002c000e284440032a0b4009906ba00e2844400fb
:1002d00032a0b4000006eb00476fde00fd07b2005d
:1002e000636ce10003003a00ebff07000000eb0045
:1002f0000a003700606ce10004003a00005deb008a
:100300008b05e900fdff3e00040037006168e10055
:10031000010032000086eb000b00070019c7ba008d
:100320001905ba000e04e00003003a000a00e000dc
:10033000e0ff3a0000000600fe07b2009e018800c0
:100340008a047800f5ff3700395dba008b05e900b3
:100350000c003200295dba008b05e900080032006c
:100360000c00e00003003a00e284440032a0b40034
:10037000f5ff370019ddba008b05e900faff3a00f6
:100380008904e800e184440032a0b40000000600c3
:10039000f0080400000000008c10040000000000c1
:1003a000581104000000000028170400000000009d
:1003b0000040da000000fe000c02e20004003d00f4
:1003c0000f42ab00020032000f02ab00feff320012
:1003d0000040da00feff3700889fbe0080047800ee
:1003e000708180000000e00004003a000e00070069
:1003f0000084eb000000e0000800350078818000f8
:100400000900e00005003200090044000600070072
:100410000000e00001003d000084eb0008007800cf
:100420004f04be0000000600800078000100e000dc
:1004300003003a00000321007081880000000500dd
:100440000080eb0002232100828f500002003e005a
:10045000718188000000eb0000000600000005002c
:10046000889fbe008a9fbe008c1f78009d000700f9
:10047000a400330003866c006450e1002e003200bb
:100480006420e100330032006150e1002f003200af
:100490006120e1003100320085855500eb07b00096
:1004a000090020000804200005003700080444006b
:1004b00089844c000a0031000603430087834b0007
:1004c0000001530081815b00f8ff33000203be008e
:1004d0000800a0000804440089844c00f6ff39009d
:1004e000c639dd00830173000100320013002000d3
:1004f0008904d1000884d3000998a30005003200c4
:100500000800a7000300a0008904d1000884d300dc
:100510008b05e8008904d1000884d3000001eb00ba
:100520000281d2003400070001f0a1000cf0a70006
:1005300001f0a0007c0037006420e1007e00320062
:100540000801be000200be00f7ff37006120e10095
:10055000790032006000b800f3ff3700000020008f
:1005600001f82700f0ff37000001be004800070037
:100570000470a70003f0a1006509b1001600320065
:100580000d0035006828e10006003500f0ff2f005f
:10059000f1ff27000300e00013003b0001002800ea
:1005a0000000050000004000818048008502e9004d
:1005b000fcff3a0008003700f88f420002003c00c0
:1005c0008000eb00000005008100d1000080d30016
:1005d0008502e800fcff3a000300e00002003b0057
:1005e00060001000e0801800000006004f89de0067
:1005f000820178005300370081002000618055009f
:100600000b003d000b00200061fe2f000100e10007
:100610001d00340082817100610164008904d100f1
:100620000884d3000000e800faff3a0071002000bf
:1006300061006400030070000200600009003200e5
:1006400061044400e0844c000988a50005003200e4
:100650008b05e8006808e10002003a008904d10037
:100660000884d300f20f20000258e10005003d008d
:10067000c75ddd00f907b2008980750008007800c9
:10068000000006000bf827008b0078000000050032
:10069000c70ade00f107b200f50fb2000800320011
:1006a000e1cf4200020032000170a00024000500ea
:1006b000810f7000010032000408050044000500ad
:1006c000810f700002003a00140005008502e90065
:1006d0000000400081c04800fcff3b000170a0000a
:1006e000240005000004be00e9ff07000003be006f
:1006f0000405be000200be00e5ff0700844f750040
:10070000000006000200be006450e1000500360053
:100710006420e100020036000968a30001003a00ed
:100720000800be000160a0004f0678004f05be0023
:100730004f04be0000000600f0ff2f00f1ff27006d
:10074000f9ff3700881f7800030478000300e000f9
:1007500007003d0060001000e080180060011900f3
:10076000e081190002003b0001f02d00030037007a
:100770000400070008f0a70001f0a0004f04780073
:1007800000000600889fbe008a9fbe0000827000a5
:100790000402710004827100260032000004be00d1
:1007a0000200be006011b8006b0920009502200015
:1007b0000182cf000a0039000541b1000082cf005c
:1007c000070039000541b1000982cf00040039005b
:1007d0000541b1000882cf00010039000541b10098
:1007e00005425200120032000a003b008281710073
:1007f000610164008100d1000080d3008984d300ae
:100800000884d3008b05e8000442e800f7ff3a00b3
:10081000070037000804440089844c0000004800a9
:10082000818048008b05e9000442e900f9ff3a00a5
:1008300071ff07004f05be004f04be000000060018
:1008400000047800de00070008007800dafe0700e8
:10085000889fbe008a9fbe008c9fbe00e1012100e0
:10086000f28080000200e0000b003a00648140004a
:10087000f280880042818800a100980031818800c0
:10088000214190000204a000a24098006141900024
:100890000204a000e2409800670440004244de00e9
:1008a0004244dd003481800001032100092321003e
:1008b000818454002d002000110009008d04d8000f
:1008c000800678000886e8000c0646008001eb00f0
:1008d00002003700130020000b027800a4409000b3
:1008e0000108a300020032000a003700120a780053
:1008f00014017800a24090000108a300fbff320021
:1009000088004200810f5100020039000800e00019
:1009100042003d00940578000b00a100848f550033
:10092000edff3e00e18f5100eaff3a008d0f5400c9
:1009300002003600890f5400140039006141b800ec
:100940006148b900b4ff2f000500200000005200ec
:1009500081805a00800f5100818f590002003500bc
:10096000640544000a003700000321003a232100f7
:100970000005550008054500110009000985d8004b
:100980000980b90000057800010037000c057800e7
:100990000a00780090fe0700e10f400005003a00d1
:1009a000640544000a0078008bfe0700e10f400058
:1009b0002b00320041818000800878004181800056
:1009c000e481400021419000830f5000020032007a
:1009d0000204a000010037000204a100a240980018
:1009e000640555000a0540000a0878004a8188001d
:1009f000e1012100010d780042818000a2409000b9
:100a00000104a00021419800a04090000104a10031
:100a1000214098008001eb00afff37003181880052
:100a2000810f5100070036001101be00528188007d
:100a300063818800940878000041eb0031818000d8
:100a4000a240980033818000030a7800a4409000ff
:100a50000104a00021429800640042000100370018
:100a60000000eb004f06be004f05be004f04be0065
:100a7000000006000000e0000800320064005000a2
:100a800031818000810f50000100310030818800e9
:100a9000a04090000104a100214098000000060041
:100aa000889fbe008a9fbe000004be000900e000cf
:100ab00007003a000000eb000800e00036003200ba
:100ac00008007800ebff07000000eb003200370061
:100ad0000800e00003003a00090078005cff07000e
:100ae0002d003700640054009005780068f89700e6
:100af0000008a3000200320008007800ddff0700b4
:100b00000900780052ff0700800478000000eb0025
:100b10000900e00020003200888f54001b003200e2
:100b200069bd97000905550042d5de00888555004e
:100b3000c2ddde000a0178008b0f5500010036008f
:100b40000b0178004211dd00880078000900780070
:100b500014000700888f54000e0031004255dd005c
:100b60000a854400880f55000a0036000804550025
:100b700042c4de004244dd0008844400508180000d
:100b800061818000008cbe00020037000800780000
:100b900001003700090078004f05be004f04be0079
:100ba000000006008001780002003700b15978008b
:100bb0000201e9000200e000fcff3a00000006002c
:040bc000000006002b
:020000040000fa
:100bc4000400fa00000f7800110798001e00780056
:100bd400e30f500061003200e30f500005003e00b7
:100be400e10f500027003200e10f500040003e00aa
:100bf40009003700e50f50008e003200e50f500069
:100c040071003900e60f5000a5003200e70f5000d4
:100c1400be003200d80037001e009000e10f5000e3
:100c24000d003600201680004600de0061406000a2
:100c34000004a200614060000080fb0061006000cd
:100c44004600dd00211680000160a1000100700053
:100c540020168800180137001e009000004078001c
:100c6400614060000080fb00610060004600dd0020
:100c7400211680000160a100010070002016880088
:100c84000d0137001e009000e10f50000d003600ea
:100c9400201680004700de00614060000004a200ce
:100ca400614060000080fb00610060004700dd00df
:100cb400211680000170a100010070002016880038
:100cc400fd0037001e009000004078006140600085
:100cd4000080fb00610060004700dd0021168000f9
:100ce4000170a1000100700020168800f200370096
:100cf4001e009000e10f50000d0036002016800009
:100d04004900de00614060000004a2006140600010
:100d14000080fb00610060004900dd0021168000b6
:100d24000190a1000100700020168800e200370045
:100d34001e00900000407800614060000080fb00cd
:100d4400610060004900dd00211680000190a100cf
:100d54000100700020168800d70037001e009000a4
:100d6400e10f50000d003600201680004c00de001c
:100d7400614060000004a200614060000080fb004c
:100d8400610060004c00dd002116800001c0a1005c
:100d94000100700020168800c70037001e00900074
:100da40000407800614060000080fb00610060004a
:100db4004c00dd002116800001c0a100010070007c
:100dc40020168800bc0037001e009000e10f500080
:100dd4000d003600201680004a00de0061406000ed
:100de4000004a200614060000080fb00610060001c
:100df4004a00dd002116800001a0a100010070005e
:100e040020168800ac0037001e00900000407800d7
:100e1400614060000080fb00610060004a00dd006a
:100e24002116800001a0a100010070002016880096
:100e3400a10037001e009000e10f50000d003600a5
:100e4400201680004d00de00614060000004a20016
:100e5400614060000080fb00610060004d00dd0027
:100e64002116800001d0a100010070002016880026
:100e7400910037001e00900000407800614060003f
:100e84000080fb00610060004d00dd002116800041
:100e940001d0a100010070002016880086003700f0
:100ea4001e009000e10f50000d0036002016800057
:100eb4004e00de00614060000004a200614060005a
:100ec4000080fb00610060004e00dd002116800000
:100ed40001e0a100010070002016880076003700b0
:100ee4001e00900000407800614060000080fb001c
:100ef400610060004e00dd002116800001e0a100c9
:100f040001007000201688006b0037001e0090005e
:100f1400e10f50000d003600201680004f00de0067
:100f2400004078000004a200614060000080fb00e3
:100f34004f00dd0022168000f1ff270081006100d0
:100f440001007000201688005b0037001e0090002e
:100f540000407800614060000080fb004f00dd002d
:100f640022168000f1ff270081006100010070005b
:100f740020168800500037001e00900000407800c2
:100f8400614060000080fb004f00dd0022168000fd
:100f9400f1ff270081006100010070002016880025
:100fa400201680004f00de00004078000080fb0027
:100fb400610060004e00dd002116800001e0a10008
:100fc4000100700020168800201680004e00de000c
:100fd400614060000080fb00610060004d00dd00a6
:100fe4002116800001d0a1000100700020168800a5
:100ff400201680004d00de00614060000080fb0090
:10100400610060004a00dd002116800001a0a100fb
:101014000100700020168800201680004a00de00bf
:10102400614060000080fb00610060004c00dd0056
:101034002116800001c0a100010070002016880064
:10104400201680004c00de00614060000080fb0040
:10105400610060004900dd00211680000190a100bc
:101064000100700020168800201680004900de0070
:10107400614060000080fb00610060004700dd000b
:10108400211680000170a100010070002016880064
:10109400201680004700de00614060000080fb00f5
:1010a400610060004600dd00211680000160a1009f
:1010b40001007000201688000080fa00000006007d
:1010c4000000fa00c4c2a900c4e2a900c522a90014
:1010d400c582a900c542a900c5a2a900c5c2a9002c
:1010e400c5e2a9000080fa00000006000200fa0030
:1010f400000f78001e007800e10f50000d0036004c
:10110400801680004200de00614060000004a200fe
:10111400614060000080fb00610060004200dd006f
:10112400811680000120a100010070008016880053
:101134000a0037001e00780000407800614060001b
:101144000080fb00610060004200dd008116800029
:101154000120a10001007000801688000080fa00c0
:10116400000006000200fa00000f78001e0078005c
:10117400e10f50000d003600801680000000d10001
:10118400614060000004a200614060000080fb0038
:101194006100600000004000811680000110a10081
:1011a40001007000801688000a0037001e007800d5
:1011b40000407800614060000080fb006100600036
:1011c40000004000811680000110a10001007000a1
:1011d400801688000080fa00000006000000fa0073
:1011e400201680004600de006140600000c0ea0076
:1011f400614060000080fb00610060004600dd008b
:10120400211680000160a1000100700020168800f2
:10121400201680004700de006140600000c0ea0044
:10122400614060000080fb00610060004700dd0059
:10123400211680000170a1000100700020168800b2
:10124400201680004900de006140600000c0ea0012
:10125400614060000080fb00610060004900dd0027
:10126400211680000190a100010070002016880062
:10127400201680004c00de006140600000c0ea00df
:10128400614060000080fb00610060004c00dd00f4
:101294002116800001c0a100010070002016880002
:1012a400201680004a00de006140600000c0ea00b1
:1012b400614060000080fb00610060004a00dd00c6
:1012c4002116800001a0a1000100700020168800f2
:1012d400201680004d00de006140600000c0ea007e
:1012e400614060000080fb00610060004d00dd0093
:1012f4002116800001d0a100010070002016880092
:10130400201680004e00de006140600000c0ea004c
:10131400614060000080fb00610060004e00dd0061
:101324002116800001e0a100010070002016880051
:10133400201680004f00de000040780000c0ea0064
:10134400614060000080fb004f00dd002216800039
:10135400f1ff270081006100010070002016880061
:101364000080fa00000006000000fa002016800049
:101374004600de006140600000c0ea006140600099
:101384000080fb00610060004600dd002116800043
:101394000160a10001007000201688000080fa009e
:1013a400000006000000fa00201680004700de005e
:1013b4006140600000c0ea00614060000080fb0002
:1013c400610060004700dd00211680000170a1006b
:1013d40001007000201688000080fa00000006005a
:1013e4000000fa00201680004900de006140600021
:1013f40000c0ea00614060000080fb006100600002
:101404004900dd00211680000190a1000100700058
:10141400201688000080fa00000006000000fa0090
:10142400201680004c00de006140600000c0ea002d
:10143400614060000080fb00610060004c00dd0042
:101444002116800001c0a100010070002016880050
:101454000080fa00000006000000fa002016800058
:101464004a00de006140600000c0ea0061406000a4
:101474000080fb00610060004a00dd00211680004e
:1014840001a0a10001007000201688000080fa006d
:10149400000006000000fa00201680004d00de0067
:1014a4006140600000c0ea00614060000080fb0011
:1014b400610060004d00dd002116800001d0a10014
:1014c40001007000201688000080fa000000060069
:1014d4000000fa00201680004e00de00614060002b
:1014e40000c0ea00614060000080fb006100600011
:1014f4004e00dd002116800001e0a1000100700013
:10150400201688000080fa00000006000000fa009f
:10151400201680004f00de000040780000c0ea0082
:10152400614060000080fb004f00dd002216800057
:10153400f1ff27008100610001007000201688007f
:101544000080fa00000006000200fa00000f780094
:101554009e007800008f2000890407000080fa00b4
:10156400000006000000fa00008f2000b30407000a
:101574000080fa00000006000200fa00000f780064
:101584001e0078000000e000030035009e00780093
:10159400008f2000cf0407000080fa00000006003e
:1015a4000000fa00a6c8bf000004e0000b003a00e7
:1015b4008000eb007000200081fd0700a6c8bf007a
:1015c4000080fb00110020007dfd0700a6c8bf00bd
:1015d4000040e800a6e8b7001a003700a6c8bf001c
:1015e400e74f50000b003a00a6c8bf000080fb0084
:1015f4000000e9008000eb0071fd0700a6c8bf00f1
:101604000080fb00110020006dfd0700a668ef00bc
:101614000c003700a6c8bf000080fb000000e900f2
:101624008000eb0066fd0700a6c8bf000080fb0039
:101634001100200062fd0700a6c8bf000040e800ba
:10164400a6e8b7000080fa00000006000000fa00d7
:10165400a5c8bf000080fb00e20f50001700320055
:10166400e20f500005003c000000e00008003200da
:10167400e10f50000a00320022003700e30f50004f
:1016840015003200e40f50001a0032001d0037002c
:10169400210020000000eb0049fd0700190037007d
:1016a400210020001000200045fd0700210020003b
:1016b4007000200042fd07001200370021002000c6
:1016c400200020003efd07002100200060002000d3
:1016d4003bfd07000b0037002100200030002000f4
:1016e40037fd0700210020005000200034fd0700d2
:1016f40004003700210020004000200030fd0700d6
:1017040000000000a5c8bf00e34f500004003e00e5
:10171400a5c8bf000040e800a5e8b70001003700f5
:10172400a568ef000080fa00000006000000fa003f
:10173400a4c8bf000004e0000e003a00c0c8bf0007
:101744000004e0000b00320010c0b300a4e8b700ae
:101754008000eb000000eb0019fd0700a4c8bf00e7
:101764000080fb001100200015fd0700c068ef0099
:1017740029003700a4c8bf000004e0000f003a00ad
:10178400c0c8bf000004e0000c003a0070c0b30001
:10179400a4e8b7008000eb000000eb0008fd0700a0
:1017a400a4c8bf000080fb001100200004fd070056
:1017b40010c0b300c0e8b70017003700a4c8bf00ca
:1017c400e74f500009003a00a468ef008000eb00e6
:1017d40070002000fafc0700a4c8bf000080fb00d2
:1017e40011002000f6fc07000b003700a4c8bf005e
:1017f400e14f500008003a00a468ef008000eb00bd
:1018040010002000eefc0700a4c8bf000080fb000d
:1018140011002000eafc07000080fa000000060026
:101824000000fa00a3c8bf000080fb00e10f5000d5
:1018340011003200e10f500003003c000000e00002
:101844000600320018003700e20f50001100320089
:10185400e30f500013003200130037002100200072
:101864000000eb00d6fc070021002000400020000f
:10187400d3fc07000c0037002100200010002000da
:10188400cffc07002100200030002000ccfc070022
:10189400050037002100200020002000c8fc0700bc
:1018a4000100370006fe0700a3c8bf00e24f500046
:1018b40004003e00a3c8bf000040e800a3e8b7004e
:1018c40001003700a368ef000080fa000000060062
:1018d4000000fa00a2c8bf000080fb00e10f500026
:1018e40011003200e10f500003003c000000e00052
:1018f4000600320018003700e20f500011003200d9
:10190400e30f5000130032001300370021002000c1
:101914000000eb00aafc070021002000400020008a
:10192400a7fc07000c0037002100200070002000f5
:10193400a3fc07002100200050002000a0fc0700a9
:101944000500370021002000600020009cfc0700f7
:1019540001003700dafd0700a2c8bf00e24f5000c3
:1019640004003e00a2c8bf000040e800a2e8b7009f
:1019740001003700a268ef000080fa0000000600b2
:101984000200fa00004f78001e407800e14f50003a
:1019940003003a0010c0b3009ee8b700010037000e
:1019a4009e68ef00a022ef00a222ef00a422ef0025
:1019b400a622ef00a802a800a822a800a842a90015
:1019c400a862a900a882a900a8a2a900a8c2a90087
:1019d400a8e2a900a902a900a922a900a942a90074
:1019e400a962a900a982a900a9a2a900a9c2a90063
:1019f400a9e2a900aa02a900aa22a900aa42a80051
:101a0400aa62a800aa82a800aaa2a900aac2a90040
:101a1400aae2a900ab02a900ab22a900ab42a9002b
:101a2400ab62a900ab82a900aba2a900abc2a9001a
:101a3400abe2a90001158000f0cf2f000080600008
:101a440000158800a042a80001158000000e2000a7
:101a540001007000001588001115800030fc2f0073
:101a6400008060000030a00010158800a342a80088
:101a740021158000f00f2e00008060000080a0007f
:101a8400201588009ec8bf000004e0000600320054
:101a94002115800000fc2f00008060003001b3009d
:101aa40020158800060037002115800000fc2f0057
:101ab4008080600070022000010070002015880002
:101ac4008560a9008d60a800a1e2a8009ec8bf009f
:101ad4000004e00005003a0000000000d14480004a
:101ae40000032000808f5000fbff36000080fa00c6
:101af40000000600809fbe00829fbe003400f800f4
:101b040000002000a00188000200fa009c68ef0099
:101b14009d68ef008560a9009ec8bf000004e00036
:101b24002700320000282000000f7800c044800005
:101b34009e0078009100780000014000208c200075
:101b440000004100010878001e8fe800c0448000b6
:101b54009e007800910078000010b0000001400061
:101b6400208c200000004100010878001e8fe8004e
:101b7400c04480009e007800910078000020b000ee
:101b840000014000208c2000000041000108780082
:101b94001e8fe800c04480000000e800c0448800b4
:101ba400c1448000f00f2000808f500042013600b5
:101bb4009828ef0010c0b3009de8b7003e0137003d
:101bc400c0012000501588001115800030fc2f0042
:101bd400008060000030a0001015880021158000ee
:101be40000fc2f0080806000700220000100700063
:101bf40020158800f189200091407800d0c3b300fb
:101c040080cf50000d003a00c00f2000501588000e
:101c14001115800030fc2f00008060004001b300eb
:101c2400101588002115800000fc2f000080600042
:101c34003001b3002015880051003700f1892000dd
:101c440091407800e0c3b30080cf500025003a00f3
:101c54001115800030fc2f00008060000040a000bf
:101c6400101588002115800000fc2f000080600002
:101c74007001b30020158800a0c8bf000080fb00dd
:101c8400e10f50000d003200e10f500003003c0052
:101c94000000e0000600320039003700e20f500077
:101ca40009003200e30f50000b003200340037000b
:101cb400c01121005015880031003700c0212200d6
:101cc400501588002e003700c041240050158800ac
:101cd400000000002a003700c08128005015880049
:101ce400270037009fc8bf00e24f500024003a008d
:101cf4001115800030fc2f00008060000040a0001f
:101d0400101588002115800000fc2f000080600061
:101d14007001b30020158800a0c8bf000080fb003c
:101d2400e10f50000d003200e10f500003003c00b1
:101d34000000e0000600320011003700e20f5000fe
:101d440009003200e30f50000a0032000c00370093
:101d5400c01121005015880009003700c02122005d
:101d64005015880006003700c04124005015880033
:101d740003003700c08128005015880000000000cf
:101d840000282000000f7800c04480009e007800e6
:101d94009100780000014000208c200000004100e8
:101da400010878001e8fe800c04480009e0078007f
:101db400910078000010b00000014000208c200049
:101dc40000004100010878001e8fe800c044800034
:101dd4009e007800910078000020b00000014000cf
:101de400208c200000004100010878001e8fe800cc
:101df400c04480000000e800c0448800c144800062
:101e0400f00f2000808f5000010036009828ef006a
:101e1400f189200091407800e0c3b30080cf5000e6
:101e240022003a00d04480000000e800d04488003a
:101e3400d144800010032000808f50000100360040
:101e44009a28ef00d04480009e007800910078002a
:101e54000001400020ec200000004100010878004f
:101e64001e8fe800d04480009e0078009100780026
:101e74002003b0000001400020ec200000004100dd
:101e8400010878001e8fe800d04480009e0078008e
:101e9400910078004006b0000001400020ec2000d2
:101ea400000041000108780074003700f189200027
:101eb40091407800f0c3b30080cf500033003a0063
:101ec400a0c8bf000080fb00e10f500013003200e7
:101ed400e10f500003003c000000e0000600320067
:101ee40066003700e20f500015003200e30f500087
:101ef4001d003200610037001e00780010007800d9
:101f0400707f88001e8fe8001e00780010007800a3
:101f1400b07f8800e2e2a800580037001e00780075
:101f240010007800807f88001e8fe8001e00780073
:101f340010007800c07f8800e302a8004f0037003b
:101f44001e00780010007800907f88001e8fe80043
:101f54001e00780010007800d07f8800e802a800f6
:101f640000000000450037001e00780010007800d3
:101f7400a07f88001e8fe8001e0078001000780003
:101f8400e07f8800e822a8003c0037009fc8bf001b
:101f9400e34f500039003a00a0c8bf000080fb00a6
:101fa400e10f500015003200e10f500003003c0027
:101fb4000000e0000600320030003700e20f50005d
:101fc40019003200e30f5000220032002b003700ca
:101fd4001e00780010007800f07f88001e8fe80053
:101fe4001e0078001000780030808800e2e2a9002a
:101ff40010c0b300a0e8b700200037001e0078002e
:1020040010007800008088001e8fe8001e00780011
:102014001000780040808800e302a90020c0b300cb
:10202400a0e8b700150037001e0078001000780003
:10203400108088001e8fe8001e00780010007800d1
:1020440050808800e802a90030c0b300a0e8b700bf
:102054000a0037001e0078001000780020808800f5
:102064001e8fe8001e007800100078006080880051
:10207400e822a900a068ef0000000000f189200018
:10208400914078008181fb0010c0b300f20320006e
:10209400828f510001003c000040eb008140e800c9
:1020a40081417800f2892000034978000004e000af
:1020b400010032009f68ef0010c0b3009ce8b70035
:1020c4000080fa003400f9004f01be004f00be004a
:1020d400004006000000fa009cc8bf000080fa001f
:1020e400000006000000fa009dc8bf000080fa004e
:1020f400000006000000fa00a1e2a8000080fa0037
:10210400000006000000fa00a1e2a9000080fa0025
:10211400000006000000fa00b04480000000e00067
:10212400190032004144800080da2f00808f500073
:10213400150035004144800080252000808f500028
:1021440011003c00d602a900d622a900d642a9005b
:10215400d662a9009628ef004044800000f0a70052
:102164000000ea000171220000017800110009005a
:102174008200d8006f00500080007800c008210061
:10218400d401070047003700404480000000e0000d
:102194000c003400804480000000e8008044880083
:1021a400604480000000e9006044880060448000ce
:1021b4000000e0000d003d00300020006044880075
:1021c4000a003700804480000000e9008044880051
:1021d400604480000000e80060448800604480009f
:1021e400e30f5000010034008c28ef0060448000ad
:1021f400e10f50000f003200e10f500003003c00db
:102204000000e0000600320019003700e20f500021
:102214000d003200e30f50001000320014003700ac
:10222400d602a900d622a800d642a900d662a800e8
:102234000f003700d602a900d622a800d642a80073
:10224400d662a9000a003700d602a800d622a90047
:10225400d642a800d662a90005003700d602a8001d
:10226400d622a900d642a900d662a8000000000028
:102274004144800080da2f00808f5000090035002f
:102284004144800080252000808f500005003c00e0
:1022940010002000b0448800f1002000c008210094
:1022a4008c0107000080fa00000006000000fa001c
:1022b400a04480000000e000190032005144800076
:1022c40080da2f00808f50001500350051448000c3
:1022d40080252000808f500011003c00d682a90088
:1022e400d6a2a900d6c2a900d6e2a9009428ef007c
:1022f4005044800000f0a7000000ea0001712200b1
:1023040000017800110009008200d8006f0050001d
:1023140080007800801521006e0107004700370017
:10232400504480000000e0000c003d009044800018
:102334000000e90090448800704480000000e90037
:1023440070448800704480000000e0000d003d00ef
:1023540030002000704488000a0037009044800058
:102364000000e80090448800704480000000e80009
:102374007044880070448000e30f50000100340072
:102384008e28ef0070448000e10f50000f003200ef
:10239400e10f500003003c000000e00006003200a2
:1023a40019003700e20f50000d003200e30f500017
:1023b4001000320014003700d682a900d6a2a8006b
:1023c400d6c2a900d6e2a8000f003700d682a90021
:1023d400d6a2a800d6c2a800d6e2a9000a003700f7
:1023e400d682a800d6a2a900d6c2a800d6e2a90027
:1023f40005003700d682a800d6a2a900d6c2a9003b
:10240400d6e2a800000000005144800080da2f00ca
:10241400808f500009003500514480008025200041
:10242400808f500005003c0010002000a04488006c
:10243400f100200080152100260107000080fa0029
:10244400000006000000fa008000eb00c008210034
:10245400cb0007008000eb0080152100c8000700b6
:102464000080fa00000006000200fa00000f780065
:102474001e0078000000e00009003a008828ef0000
:102484008000eb00c008210012010700d602a90059
:10249400d622a900d642a900d662a900340037008a
:1024a40080c12f009e007800808f50000b003d00fb
:1024b40080c12f004044880040448000018f2d00db
:1024c40000017800110009008200d8008000780023
:1024d400c0082100ff00070025003700803e2000cf
:1024e4009e007800808f50000b003400803e200056
:1024f40040448800404480000171220000017800bb
:10250400110009008200d80080007800c008210072
:10251400f0000700160037009e0078004144880050
:102524001e0078000000e00009003d00018f2d002e
:102534001e00780000017800110009008200d80014
:1025440080007800c0082100e2000700080037007e
:10255400017122001e0078000001780011000900ba
:102564008200d80080007800c0082100d90007004c
:102574000080fa00000006000200fa00000f780054
:102584001e0078000000e00009003a008a28ef00ed
:102594008000eb0080152100ce000700d682a90040
:1025a400d6a2a900d6c2a900d6e2a90034003700f9
:1025b40080c12f009e007800808f50000b003d00ea
:1025c40080c12f005044880050448000018f2d00aa
:1025d40000017800110009008200d8008000780012
:1025e40080152100bb00070025003700803e200035
:1025f4009e007800808f50000b003400803e200045
:102604005044880050448000017122000001780089
:10261400110009008200d800800078008015210094
:10262400ac000700160037009e0078005144880073
:102634001e0078000000e00009003d00018f2d001d
:102644001e00780000017800110009008200d80003
:1026540080007800801521009e00070008003700e4
:10266400017122001e0078000001780011000900a9
:102674008200d800800078008015210095000700b2
:102684000080fa00000006000400fa00000f780041
:10269400110798001e0078008000780001f0a70060
:1026a4008100ea001e00900000f0a7000000ea008c
:1026b40080804000803e2000808f500007003c0056
:1026c4001e0090001e00100067ff07001e0090000f
:1026d4001e004000a8ff07000100370000000000b2
:1026e4000080fa00000006000000fa008044800028
:1026f4000080fa00000006000200fa00000f7800d3
:102704009e007800814488000080fa0000000600e2
:102714000000fa00904480000080fa0000000600e7
:102724000200fa00000f78009e00780091448800af
:102734000080fa00000006000000fa001021ef00fb
:1027440081088000f0fc2f00008060008008880071
:102754000621ef00205c20006008880084c0a900e6
:102764008cc0a80011e1a8000080fa000000060057
:102774000000fa0011e1a9000080fa000000060040
:102784000600fa001007980021079800f145800020
:10279400010f78000a0037001e007800b000900096
:1027a4001e009000808f500002003a0010002000ac
:1027b400200037001e007800c0009000010f780050
:1027c4001e0078000000e000f3ff3a00a0002000a3
:1027d4001ef80700000f78001e0078000000e000db
:1027e40002003a001000200014f80700ae00900028
:1027f4001e007800010878001e0078008000eb00bd
:10280400110098001e00780011c0b30041409800e8
:102814001e0078009e00900031009800f145800071
:102824001e007800410098009e007800f145880061
:10283400100020000080fa00000006000600fa00e4
:10284400200798000000eb00000f7800f14580009d
:1028540011079800190037001e009000b000900086
:102864002e009000808f50000f003a001e00780068
:102874000000e000050032001e009000c00090003f
:102884001e00780041009800030037001e009000ed
:1028940040009000f04588001e00900074f8070086
:1028a40010002000090037009e009000010f7800fe
:1028b4001e009000c0009000110798001e009000b8
:1028c4000000e000e4ff3a00200020000080fa004d
:1028d400000006000600fa0010079800210798007f
:1028e400f1458000010f78000d0037001e007800cc
:1028f400b00090001e009000808f500005003a0048
:10290400ae0090001e00780001087800100020003e
:10291400070037001e007800c0009000010f780007
:102924001e0078000000e000f0ff3a0020002000c4
:102934000080fa00000006000400fa001007980066
:10294400f1458000010f78000d0037001e0078006b
:10295400b00090001e009000808f500005003a00e7
:102964001e0078008000eb00110098001000200089
:10297400070037001e007800c0009000010f7800a7
:102984001e0078000000e000f0ff3a002000200064
:102994000080fa00000006000400fa001007980006
:1029a400f1458000010f78000d0037001e0078000b
:1029b400b00090001e009000808f500005003a0087
:1029c4001e0078008040eb00414098001000200079
:1029d400070037001e007800c0009000010f780047
:1029e4001e0078000000e000f0ff3a002000200004
:1029f4000080fa00000006000400fa0010079800a6
:102a0400f1458000010f78000d0037001e007800aa
:102a1400b00090001e009000808f500005003a0026
:102a24001e00780011c0b30041409800100020003f
:102a3400070037001e007800c0009000010f7800e6
:102a44001e0078000000e000f0ff3a0020002000a3
:102a54000080fa00000006003600f800809fbe00e7
:102a6400829fbe00849fbe00869fbe003400f80093
:102a740000002000a00188000200fa00f145800057
:102a8400010f780084c0a9001e0037001e007800e2
:102a940040409000e14f500017003a001e007800bb
:102aa400100078000000e000130032001e007800df
:102ab400100090008000e8001e00780011009800cb
:102ac4001e00780010009000800078001e0078003e
:102ad400100078000000e900808f500006003600e6
:102ae4001e00780030009000000001001e007800f5
:102af4008000eb00110098001e007800c0009000d8
:102b0400010f78001e0078000000e000dfff3a00ab
:102b14000080fa003400f9004f03be004f02be00eb
:102b24004f01be004f00be003600f9000040060011
:102b34002800fa00889fbe000000eb00000f780018
:102b44000000eb00100798000d0037001e0078000d
:102b540080004000e0002100008040008000eb0085
:102b6400010878001e0078004200dd0000004700e4
:102b7400680140006000b8000089be001e0fe80034
:102b84001e007800e70f5000f0ff34002a003700e1
:102b94000000eb00000f7800210037001e007800d1
:102ba4004200dd00e8004700008040001004be0041
:102bb4001e00780042000700cf80de0008004000bd
:102bc400898048001e0178004211dd00020147009f
:102bd400680141000089be006000b8002007980029
:102be40031079800060037002e009000be009000c8
:102bf40061004000e08048002007980031079800f9
:102c04002e019000be019000703e200001002000c3
:102c1400800f5100818f5900f3ff34001e0fe8002c
:102c24001e007800e70f5000dcff34001e00900007
:102c34000000e800100798009e0090003006200075
:102c4400808f5000d2ff34000000eb00000f7800aa
:102c5400150037001e0078004200dd00e800470040
:102c6400008040001000be005ff607000004be00b4
:102c74001e009000cf80de005bf607000001be005e
:102c84000800be00f5f5070036f60700800078005e
:102c94001e00780000014000e00021000000410017
:102ca400010878001e0fe8001e007800e70f5000ae
:102cb400e8ff34004f04be000080fa000000060064
:102cc4000200fa00000f78001e007800e70f5000a1
:102cd400020036000000eb000b0037001e007800f5
:102ce40080004000e0fe200000804000900078005a
:102cf4001e00780000014000e0ff200000004100b9
:102d040010007800008050000080fa0000000600e7
:102d14000400fa00100798001e009000e70f50000e
:102d2400020036000000eb00170037001e00900080
:102d340080004000e0fe2000008040009000780009
:102d44001e00900000014000e0ff20000000410050
:102d540010007800808050001e00900000014000a8
:102d6400e00021000000410010007800008f5000b6
:102d74001e0078000000e000020034001e0078000d
:102d8400010037000000eb000080fa00000006009c
:102d94000200fa00000f78001e007800e70f5000d0
:102da400020036000000eb00050037001e0078002a
:102db40080004000e0fe2000008040001000780009
:102dc4000080fa00000006000000fa00dec2a8003d
:102dd4008200a8008400a9008c00a8000080fa00ea
:102de400000006003600f800809fbe00829fbe00ef
:102df400849fbe00869fbe003400f80000002000bf
:102e0400a00188000000fa008c00a90051012000f4
:102e1400807221005afe0700a968ef00a9c8bf000c
:102e2400a8e8b700a8c8bf00aae8b7000080fa0065
:102e34003400f9004f03be004f02be004f01be0034
:102e44004f00be003600f900004006000200fa0000
:102e5400e0458000e10f400016003a0001178000b1
:102e640000042000008060000000e0000700320041
:102e74008c00a8008400a900807221006ffe070066
:102e84000080eb00e04588005000370091002000ee
:102e9400807221008ffe0700a968ef00a9c8bf0057
:102ea400a8e8b700a8c8bf00aae8b700bc28ef008c
:102eb40046003700e0458000e10f500008003a006a
:102ec400001780004600de0061406000aae8b700f9
:102ed40021012000807221007efe07003b003700a4
:102ee400e0458000e10f500010003400e045800010
:102ef400e60f50000d003c00001780004600de0085
:102f040061406000004f78009e80fb00e045800037
:102f1400660010000008dd00004f7800a8c8bf005c
:102f24001e404000a8e8b70028003700e0458000b4
:102f3400e60f500013003400e0458000ec0f500011
:102f440010003c00001780004600de006140600075
:102f5400104798001e4090008080fb00e0458000f0
:102f64006c0010000008dd0010479800918a2000d2
:102f7400914078001e40900000c04000a9e8b700ce
:102f840012003700e0458000ed0f50000f003a00ba
:102f94008000eb001000200009f707008c00a80057
:102fa4008400a9008072210024fe07000080eb0049
:102fb400e0458800aac8bf00bae8b700a8c8bf00a7
:102fc400abe8b700a9c8bf00ace8b700e045800093
:102fd400e10f400003003200e04580000000e800fb
:102fe400e04588000080fa00000006000000fa00b6
:102ff400bac8bf000080fa00000006000000fa0012
:10300400abc8bf000080fa00000006000000fa0010
:10301400acc8bf000080fa00000006000000fa00ff
:10302400ca0007000040eb0055fa070024f8070027
:1030340004fd0700c0fd07001000200049f8070048
:103044003a000700fcff37000800fa002007980048
:10305400310798006000b800008fbe0004003700fc
:1030640012002000030020001e0f41005e9749005b
:103074002e009000be0090001e01be00800f510083
:10308400818f5900f6ff35000080fa000000060029
:103094000000fa00301780004600de006140600046
:1030a4008080fb00301780004800de006140600033
:1030b4000081fb00301780004900de0061406000a1
:1030c4000080fb00000040000000410000004000c0
:1030d40000017800301780004700de006140600086
:1030e4000080fb0000004100000040000080400020
:1030f4000080fa00000006000000fa001000200022
:10310400faf7070000242400f1002000ceff070096
:103114000000eb00f5f7070000242400f100200074
:10312400c9ff07000080fa00000006000600fa004c
:10313400a018200010079800d5ff0700200798006a
:103144002e0090000000e000170034000000eb00a7
:10315400000f78000b00370010002000e3f7070091
:1031640000122a0071002000b7ff07000000eb00e6
:10317400def7070000122a0071002000b2ff0700ea
:103184001e0fe8002e0090009e007800808f5000f3
:10319400f1ff35001e009000b3fc07001e009000f4
:1031a400f5fc0700040037000000eb00aefc07004c
:1031b4000000eb00f0fc07000080fa0000000600ad
:020000040000fa
:1031c400be0800000200000000000000a208000089
:1031d4000600000000000000c0080000020000001b
:1031e4000200000001000000880800001000000038
:1031f40000000000a8080000060000000000000015
:10320400ba08000004000000020000000200ff00f1
:10321400ff0000000e10000010000000000000007d
:10322400c20800004c0700000000000098080000dd
:103234000a00000000000000000800004400000034
:103244000200000000000000000000000000000078
:10325400000000000000000000000000000000006a
:10326400000000000000000000000000000000005a
:10327400000000000000000000000000000000004a
:10328400000000000000000000000000000000003a
:10329400000000000000000000000000000000002a
:1032a400ae0800000600000002000000000000005c
:1032b4000000000044080000440000000200000078
:1032c40000000000000000000000000000000000fa
:1032d40000000000000000000000000000000000ea
:1032e40000000000000000000000000000000000da
:1032f40000000000000000000000000000000000ca
:1033040000000000000000000000000000000000b9
:10331400000000000000000000000000b4080000ed
:103324000600000002000000000000000000000091
:103334001e10000010000000000000002e1000000d
:0c3344000200000000000000000000007b
:020000040000fa
:103350000000fa00c4c2a900c4e2a900c522a90065
:10336000c582a900c542a900c5a2a900c5c2a9007d
:10337000c5e2a900c0c2a900c0e2a900c122a900fb
:10338000c182a900c142a900c1a2a900c1c2a9006d
:10339000c1e2a900d022a900cc22a900d042a900f4
:1033a000cc42a900e2e2a900e302a900e802a900d8
:1033b000e822a900dee2a900df02a900e402a900d8
:1033c000e422a900e202a900de02a900d602a900b7
:1033d000d622a900d642a900d662a900d682a900a9
:1033e000d6a2a900d6c2a900d6e2a900d202a9009d
:1033f000d222a900d242a900d262a900d282a90099
:10340000d2a2a900d2c2a900d2e2a900d1a2a900e9
:10341000cda2a900e842a900e862a900e442a900ff
:10342000e462a900de22a800dec2a800e4c2a8006f
:10343000e4e2a800e502a800e522a800d302a80063
:10344000d322a800d342a800d362a800d382a80048
:10345000d3a2a800d3c2a800d3e2a8000080fa003b
:10346000000006008540a900809fbe00821f7800f2
:10347000b208e20015003200ae08e2001600320089
:10348000b008e200140032007145800042002000c4
:103490000f22af00feff3700804580000000e000f3
:1034a000070032000000e900b0a8b7003140780002
:1034b00010e2b7000201e900f5ff3a000200370010
:1034c000ae28ef0001003700714588004f017800f9
:1034d0004f00be000040060000002000904588001c
:1034e0004f0178004f00be0000400600b208e20025
:1034f000feff3a008d40a9008100e9008145880067
:10350000b0407800811088007045880011002000cc
:10351000914588008d40a80000000600904580007d
:10352000000006008720a900809fbe00821f78004f
:10353000b808e20015003200b408e20016003200bc
:10354000b608e20014003200a145800042002000cd
:103550001922af00feff3700b04580000000e000f8
:10356000070032000000e900b6a8b700314078003b
:103570001ae2b7000201e900f5ff3a000200370045
:10358000b428ef0001003700a14588004f01780002
:103590004f00be000040060000002000c04588002b
:1035a0004f0178004f00be0000400600b808e2005e
:1035b000feff3a008f20a9008100e900b145880094
:1035c000b0407800d1108800a0458800110020008c
:1035d000c14588008f20a80000000600c04580007b
:1035e00000000600809fbe008520a90000428000e8
:1035f000f003b20001802000810040000000eb00d9
:1036000012c2bf00804878004028ec004f00be0086
:10361000004006000042800011428000010050007e
:103620000000060001428000124280000208e10012
:1036300008003200f203b200018020000281400045
:1036400092407800014878004228ec0010002000e9
:10365000000006000000eb0000000600809fbe0096
:103660008700a90020448000f003b20041842000bc
:10367000810040000000eb001cc2bf0080487800c1
:103680008428ec004f00be0000400600204480006b
:1036900031448000010050000000060021448000f9
:1036a000324480000208e10008003200f203b20058
:1036b0004184200002814000924078000148780057
:1036c0008628ec0010002000000006000000eb003f
:1036d000000006000c22ef000e22ef000ee2a9000f
:1036e0000ec2a9008520a9008d20a8000de2a80027
:1036f00070002000a01088008540a9008d40a8001f
:1037000081e0a900c0048000f1002f00008060006b
:103710000155200000804000c00488000fe2a8008e
:103720000f42a8004028ef004228ef0000000600ea
:103730001622ef001822ef0018e2a90018c2a90013
:103740008700a9008f00a80017e2a80070002000e1
:10375000f01088008720a9008f20a80081e0a90030
:103760000005800001f02f0000806000510520005e
:10377000008040000005880019e2a8001942a80056
:0c3780008428ef008628ef0000000600ff
:020000040000fa
:0200000401f009
:04000000e6bf000057
:020000040000fa
:0200000401f009
:04000400ff7f00007a
:020000040000fa
:0200000401f009
:040008007fff000076
:020000040000fa
:0200000401f009
:04001400ffff0000ea
:00000001FF
