:020000040000fa
:080000000001040000000000f3
:020000040000fa
:04000800dc01000017
:020000040000fa
:04000c00dc01000013
:020000040000fa
:04001000dc0100000f
:020000040000fa
:04001400dc0100000b
:020000040000fa
:04001800dc01000007
:020000040000fa
:04001c00dc01000003
:020000040000fa
:04002000dc010000ff
:020000040000fa
:04002400dc010000fb
:020000040000fa
:04002800d01e0000e6
:020000040000fa
:04002c00dc010000f3
:020000040000fa
:04003000dc010000ef
:020000040000fa
:04003400dc010000eb
:020000040000fa
:04003800dc010000e7
:020000040000fa
:04003c00dc010000e3
:020000040000fa
:040040000a1d000095
:020000040000fa
:04004400dc010000db
:020000040000fa
:04004800dc010000d7
:020000040000fa
:04004c001423000079
:020000040000fa
:040050005422000036
:020000040000fa
:040054000413000091
:020000040000fa
:04005800dc010000c7
:020000040000fa
:04005c00dc010000c3
:020000040000fa
:04006000dc010000bf
:020000040000fa
:04006400dc010000bb
:020000040000fa
:04006800dc010000b7
:020000040000fa
:04006c00dc010000b3
:020000040000fa
:04007000dc010000af
:020000040000fa
:04007400dc010000ab
:020000040000fa
:04007800dc010000a7
:020000040000fa
:04007c00dc010000a3
:020000040000fa
:04008000dc0100009f
:020000040000fa
:04008400dc0100009b
:020000040000fa
:040088005023000001
:020000040000fa
:04008c00b42200009a
:020000040000fa
:04009000dc0100008f
:020000040000fa
:04009400dc0100008b
:020000040000fa
:04009800dc01000087
:020000040000fa
:04009c00dc01000083
:020000040000fa
:0400a000dc0100007f
:020000040000fa
:0400a400dc0100007b
:020000040000fa
:0400a800dc01000077
:020000040000fa
:0400ac00dc01000073
:020000040000fa
:0400b000dc0100006f
:020000040000fa
:0400b400dc0100006b
:020000040000fa
:0400b800dc01000067
:020000040000fa
:0400bc00dc01000063
:020000040000fa
:0400c000dc0100005f
:020000040000fa
:0400c400dc0100005b
:020000040000fa
:0400c800dc01000057
:020000040000fa
:0400cc00dc01000053
:020000040000fa
:0400d000dc0100004f
:020000040000fa
:0400d400dc0100004b
:020000040000fa
:0400d800dc01000047
:020000040000fa
:04010800dc01000016
:020000040000fa
:04010c00dc01000012
:020000040000fa
:04011000dc0100000e
:020000040000fa
:04011400dc0100000a
:020000040000fa
:04011800dc01000006
:020000040000fa
:04011c00dc01000002
:020000040000fa
:04012000dc010000fe
:020000040000fa
:04012400dc010000fa
:020000040000fa
:04012800dc010000f6
:020000040000fa
:04012c00dc010000f2
:020000040000fa
:04013000dc010000ee
:020000040000fa
:04013400dc010000ea
:020000040000fa
:04013800dc010000e6
:020000040000fa
:04013c00dc010000e2
:020000040000fa
:04014000dc010000de
:020000040000fa
:04014400dc010000da
:020000040000fa
:04014800dc010000d6
:020000040000fa
:04014c00dc010000d2
:020000040000fa
:04015000dc010000ce
:020000040000fa
:04015400dc010000ca
:020000040000fa
:04015800dc010000c6
:020000040000fa
:04015c00dc010000c2
:020000040000fa
:04016000dc010000be
:020000040000fa
:04016400dc010000ba
:020000040000fa
:04016800dc010000b6
:020000040000fa
:04016c00dc010000b2
:020000040000fa
:04017000dc010000ae
:020000040000fa
:04017400dc010000aa
:020000040000fa
:04017800dc010000a6
:020000040000fa
:04017c00dc010000a2
:020000040000fa
:04018000dc0100009e
:020000040000fa
:04018400dc0100009a
:020000040000fa
:04018800dc01000096
:020000040000fa
:04018c00dc01000092
:020000040000fa
:04019000dc0100008e
:020000040000fa
:04019400dc0100008a
:020000040000fa
:04019800dc01000086
:020000040000fa
:04019c00dc01000082
:020000040000fa
:0401a000dc0100007e
:020000040000fa
:0401a400dc0100007a
:020000040000fa
:0401a800dc01000076
:020000040000fa
:0401ac00dc01000072
:020000040000fa
:0401b000dc0100006e
:020000040000fa
:0401b400dc0100006a
:020000040000fa
:0401b800dc01000066
:020000040000fa
:0401bc00dc01000062
:020000040000fa
:0401c000dc0100005e
:020000040000fa
:0401c400dc0100005a
:020000040000fa
:0401c800dc01000056
:020000040000fa
:0401cc00dc01000052
:020000040000fa
:0401d000dc0100004e
:020000040000fa
:0401d400dc0100004a
:020000040000fa
:0401d800dc01000046
:020000040000fa
:100200008f2521000e7f22000e01880000000000d3
:10021000000020000000e000020032000001200089
:1002200020028800140007008e0007000000e00094
:1002300003003a00e00e2200010020000200370017
:100240000000200001002000810f7000010032003a
:1002500014000700000020000000e000020032004f
:100260000000020000000000ec1f0200000000007f
:100270000040da000000fe004440a9000000200019
:100280000000e0000300320000002000a001880010
:100290004440a800000006008a1f78008b1f7800e9
:1002a0000000060091018800800478000000eb0047
:1002b0001a003700e284440032a0b4009905ba0065
:1002c000e284440032a0b4009906ba00e2844400fb
:1002d00032a0b4000006eb00476fde00fd07b2005d
:1002e000636ce10003003a00ebff07000000eb0045
:1002f0000a003700606ce10004003a00005deb008a
:100300008b05e900fdff3e00040037006168e10055
:10031000010032000086eb000b00070019c7ba008d
:100320001905ba000e04e00003003a000a00e000dc
:10033000e0ff3a0000000600fe07b2009e018800c0
:100340008a047800f5ff3700395dba008b05e900b3
:100350000c003200295dba008b05e900080032006c
:100360000c00e00003003a00e284440032a0b40034
:10037000f5ff370019ddba008b05e900faff3a00f6
:100380008904e800e184440032a0b40000000600c3
:10039000780e0400000000001416040000000000a5
:1003a000e016040000000000041f0400000000002c
:1003b000dc190400000000000040da000000fe002c
:1003c0000c02e20004003d000f42ab0002003200cc
:1003d0000f02ab00feff32000040da00feff3700e4
:1003e000889fbe0080047800b08280000000e0009a
:1003f00004003a000e0007000084eb000000e0005b
:1004000008003500b88280000900e00005003200d5
:1004100009004400060007000000e00001003d0064
:100420000084eb00080078004f04be0000000600c6
:10043000800078000100e00003003a008005210000
:10044000b0828800000005000080eb0082252100ba
:10045000828f500002003e00b18288000000eb0055
:100460000000060000000500889fbe008a9fbe00b5
:100470008c1f7800ac000700b300330003866c00cb
:100480006450e1002e0032006420e10033003200ad
:100490006150e1002f0032006120e10031003200a4
:1004a00085855500eb07b0000900200008042000f6
:1004b000050037000804440089844c000a0031001c
:1004c0000603430087834b000001530081815b00da
:1004d000f8ff33000203be000800a0000804440037
:1004e00089844c00f6ff3900c639dd0083017300b2
:1004f00001003200130020008904d1000884d300d9
:100500000998a300050032000800a7000300a0001e
:100510008904d1000884d3008b05e8008904d10048
:100520000884d3000001eb000281d20043000700e1
:1005300001f0a1000cf0a70001f0a0008b00370033
:100540006420e1008d0032000801be000200be0000
:10055000f7ff37006120e100880032006000b8003a
:10056000f3ff37000000200001f82700f0ff3700fc
:10057000839f68000100e00002003d006000100061
:10058000e08018000300e00002003d00600111005f
:10059000e08119005f0107004f00e00002003b000e
:1005a00060001000e0801800000006000001be009e
:1005b000480007000470a70003f0a1006509b1001e
:1005c000160032000d0035006828e10006003500f5
:1005d000f0ff2f00f1ff27000300e00013003b00b5
:1005e0000100280000000500000040008180480054
:1005f0008502e900fcff3a0008003700f88f42004e
:1006000002003c008000eb00000005008100d100ea
:100610000080d3008502e800fcff3a000300e00000
:1006200002003b0060001000e0801800000006009f
:100630004f89de00820178003e02370081002000f1
:10064000618055000b003d000b00200061fe2f0073
:100650000100e1001d00340082817100610164002d
:100660008904d1000884d3000000e800faff3a00b2
:10067000710020006100640003007000020060004f
:100680000900320061044400e0844c000988a500a0
:10069000050032008b05e8006808e10002003a001e
:1006a0008904d1000884d300f20f20000258e10031
:1006b00005003d00c75ddd00f907b20089807500c7
:1006c00008007800000006000bf827008b00780077
:1006d00000000500c70ade00f107b200f50fb20006
:1006e00008003200e1cf4200020032000170a00099
:1006f00024000500810f700001003200040805008d
:1007000044000500810f700002003a00140005004b
:100710008502e9000000400081c04800fcff3b006a
:100720000170a000240005000004be00e9ff0700de
:100730000003be000405be000200be00e5ff070086
:10074000844f7500000006000200be006450e10006
:10075000050036006420e100020036000968a300ad
:1007600001003a000800be000160a0004f067800ba
:100770004f05be004f04be0000000600f0ff2f0032
:10078000f1ff2700f9ff37000c00fa00889fbe0038
:100790008a9fbe008c9fbe00e3ff07000206be00da
:1007a000840578000200be0002002000b6010700a8
:1007b00005003a008b02b30012002000b2010700ce
:1007c00001003a00f8856d000c01be00c60007006c
:1007d0000800be009b0032000b08a3009e003a00f8
:1007e0000df0a7000be0a00009f0a7000bf0a0009f
:1007f00009f0a1000801be00bb0007000bf0a60035
:100800009500320001003c000bd0a0008acf75009b
:10081000b20033006000b8006250e1009900390076
:10082000a1003e000b28a300a2003a000bf8a30091
:10083000060032000b58a300a70032000801be00da
:10084000a90007000800be00940032000800be00a6
:10085000c00007000004be00050578000bf0a700eb
:100860000b30a6000bf0a1005b079800324f200070
:1008700053f32300ab01070005003d000800be0054
:1008800012002000ea0107000004be000a05e9008a
:100890004a0798006150b90065ff0700008fbe004d
:1008a0000c01be005b02070040ff07003007980004
:1008b0000100e00002003d0060001000e080180030
:1008c000f2ff2700820f5000e08f580064003e00c6
:1008d0000c00be0035ff070020079800f20720003b
:1008e000820f5000e08f580005003c0012f82f00e6
:1008f000f3ff2f00820f5000838f580009003d0046
:100900000a00e0000300320001003c000201ea009e
:10091000020578006000b800200798003a079800a8
:10092000190037003e0090006100b90040ff070049
:10093000809fbe000c00be004109dd004811de00b2
:100940007208b100500107000005be001e01be0084
:10095000300207004f01be008b000700809fbe00e1
:100960000c00be000a01be00870007001e01be0089
:10097000280207004f01be008400070082212700e3
:1009800013f32300230207000005be002e00900091
:100990006100b90026ff070001f0a2000c01be00b3
:1009a0007a0007000006be000800be00c201070072
:1009b0000c01be00170207000a01be007300070009
:1009c000809fbe004a0007002e0590000af0a70095
:1009d0000a05ea00050037000800be000801be0055
:1009e0000c0207000004be000c00be000801be009f
:1009f0000a00a700070207000006be000a05d10092
:100a0000f5ff3a005e01900002e0a6000300370007
:100a10000001be003600070093fe07000004be0080
:100a20004f00be00b60007000801be00f901070034
:100a30003e0190007e010700de0590000bf0a7004c
:100a400001f0a2004f06be004f05be004f04be00dd
:100a50000080fa000000060025000700f9ff3700bb
:100a6000270007006000b8000bd0a7000bc0a00053
:100a70000be0a7000bc0a2000bc0a70001f82700e5
:100a8000f0ff37000df8a300020032001e0007003f
:100a9000190007000bf8a300eaff32000b30a70093
:100aa00001f0a200e7ff37000df8a300f9ff3a00bc
:100ab000f7ff37000801be000b000700e6ff320019
:100ac00001003c000df0a2006000b8000df0a7008e
:100ad00009000700dbff37000b000700f1ff2700cc
:100ae000f0ff2f00d7ff3700010007000d0137008e
:100af00001f823000000050001f8270000000500b0
:100b0000200220000100370010022000404788002a
:100b1000000006006022b800060220000000d0009d
:100b20008180d2000482d2008582d2000000a00021
:100b30000202520083825a00030031000202420086
:100b400083824a000000a1000603e900f3ff3a0097
:100b5000000006000003be00defe07006220e10088
:100b6000020032000600be0005000500e507b100e6
:100b7000f107b20004f023008480700007f0a700a2
:100b800001f0a0002400050003f0a200889fbe0031
:100b90008a9fbe008c1f7800e3fe0700eafe330048
:100ba0006450e1004f0032006420e1005200320046
:100bb00003826c0007003b000905d0000306d0004b
:100bc000820f54000c065d00020039000200320062
:100bd00089017800030678008582550004003d00f5
:100be0000003fd008103fd008502ea008b854200c1
:100bf000840f720002003b0060001000e0801800cb
:100c00006011b8000005eb007a28e1000a00390005
:100c100006007800c75ddd00f707b2008780750029
:100c20002d003700828171000a01780061056000a3
:100c30008180d1000080d3008502e900f9ff3b00ec
:100c4000060440008784480002003b006004140052
:100c5000e0841c000988a300070032008a8171002b
:100c600082817100610164008904d1000884d3008d
:100c70008b05e800170037000978a30013003a003d
:100c80000b00e000130034008b05e9000804440069
:100c900089844c000a4474000978a3000d003a00ce
:100ca0000b00e000070034008b05e9000804440055
:100cb00089844c0001003a000b0020000978a30051
:100cc000f7ff32000001eb00020037008281710063
:100cd0000a01780059fe07000cf0a70001f0a000ff
:100ce000a2fe37006420e10002003a00838f6c000e
:100cf000a2fe33000801be000200be009bfe3700ca
:100d0000889fbe008a9fbe008c9fbe000004be006c
:100d100070fe07000800be006420e10048003e00ad
:100d20005500320072212700132b24007f0007009a
:100d300047003c000800be00c2ec2800e32c2c0059
:100d400078000700470035000800be0001f0a10050
:100d50000200200003382300720007004300350022
:100d60000800be00b2a32a0083fb2300290107006c
:100d70000200200003f0230001f0a70003f0a00010
:100d800082ff070009fe07000005be0028fe0700dd
:100d900001f0a2000006be000200280013f32300a9
:100da0001c0107000801be0078ff0700809fbe00fd
:100db0000c00be0032082800e3952b001501070047
:100dc0004f01be0071ff07000006be000001be001b
:100dd00010010700809fbe004241250083b8230018
:100de0000c0107000200200003e8230067ff070052
:100df0000c01be00070107000006be004f00be0048
:100e0000f2f92b00c3d423000201070002002000e6
:100e100003f023005dff07000c01be005aff07002e
:100e20000001be000c00be008ffd07000200200084
:100e300003f0230055ff0700610145007c00070017
:100e40004f06be004f05be004f04be000000060066
:100e500001f82700000020002202200042478800fd
:100e6000f7ff37006000b800fbff370001f82300f0
:100e700000002000f2ff370009f8a300f0ff320065
:100e80006000b800eeff3700889fbe008a9fbe005a
:100e90000003be000ffe0700850578008281520026
:100ea000020020006220e10004003a00f307b100d4
:100eb000040035007718e100040035000600be008c
:100ec000140037006000b8000f003700f50f200055
:100ed000faff2f008502d1000a85d3008301e900c3
:100ee000fcff3b008184620000046500890f7400f0
:100ef000f2ff32008582ea000a85ea0081846200fe
:100f000000046500cdfd070007f0a70001f0a00078
:100f10000081eb000200e0004f05be004f04be0060
:100f20000000060014002000ee003700f4ff2f0040
:100f3000ec003700881f7800030478000300e0000d
:100f400007003d0060001000e080180060011900fb
:100f5000e081190002003b0001f02d000300370082
:100f60000400070008f0a70001f0a0004f0478007b
:100f700000000600889fbe008a9fbe0000827000ad
:100f80000402710004827100260032000004be00d9
:100f90000200be006011b8006b092000950220001d
:100fa0000182cf000a0039000541b1000082cf0064
:100fb000070039000541b1000982cf000400390063
:100fc0000541b1000882cf00010039000541b100a0
:100fd00005425200120032000a003b00828171007b
:100fe000610164008100d1000080d3008984d300b6
:100ff0000884d3008b05e8000442e800f7ff3a00bc
:10100000070037000804440089844c0000004800b1
:10101000818048008b05e9000442e900f9ff3a00ad
:1010200086fd07004f05be004f04be00000006000d
:101030000003be00a7fd07006220e10002003200ad
:101040000600be000000060085024100e30f2000fc
:101050000328e10005003c00a3fe2f000328e10067
:1010600007003d000500200001003700f50f2000bb
:1010700020022000404788006000b80008003700c8
:10108000130020008381520005003d008100d10043
:101090000080d3008301e800fcff3a000500200037
:1010a000c72add00f107b2008580700007f0a700b5
:1010b00001f0a00000000600889fbe008a9fbe00cd
:1010c0008c9fbe00a3fe0700850478000005be00cb
:1010d0006420e10049003e006220e100030032008c
:1010e000090035000bf8a300440032000bf8a30000
:1010f000080032001002200040478800f0ff2f0057
:10110000f1ff27003d00370001f82f00000020000c
:101110003a0037003d0007009bfe07000006be00b6
:101120000a00be00324f200053f323007fff070068
:10113000060034000c00be003400070092fe0700d9
:101140000006be000a00be00020037008904e90064
:101150000c00be002d0007002e0007002b0007002a
:101160008afe07000001be000c00be00befc0700a6
:101170000005be000001be00260007000006be00fc
:10118000a2f32300430d2c0080fe0700809fbe00c9
:101190000c00be00d2e32700d3f02b001d00070097
:1011a0004f01be00b0fc07000006be000a01be00f1
:1011b000180007000a01be0074fe07000006be000a
:1011c0006148b9001afd07000005be00320828007a
:1011d000e3952b000f0007000c01be006bfe07001b
:1011e0000006be000a00be000200280013f3230020
:1011f000080007000c01be0064fe07004f06be0099
:101200004f05be004f04be000000060003f023009f
:1012100002000500889fbe008a9fbe008c1f7800d8
:1012200041fd070048fd330003866c006450e10077
:10123000240032006420e100270032006150e10008
:10124000220032006120e100210032008b85420043
:10125000eb07b1000134b800003ab80008044200be
:1012600089844a00013ab8000030b8008880400004
:1012700009014a000400330000004000818048005a
:10128000020149008b05e900c909dd0083017000f6
:101290000100320013002000c814de004814dd00f5
:1012a0004709de001200b200c808de0008847000a2
:1012b000e2fc070001f0a1000cf0a70001f0a00083
:1012c0002afd37006120e1002cfd32000801be003c
:1012d0000200be00f7ff37006150e100fcff3a005a
:1012e00026fd3700889fbe008a9fbe00841f7800bd
:1012f0000dfd07004f00780011003300f0ff2f00b4
:10130000838f6c0006003b00040565000a00a700ff
:101310000800370009f0a600100020000800370080
:10132000820f5400838f5c000300390010002000fe
:1013300001003e000000200009f0a7000000ea00c4
:101340004f05be004f04be000000e0000000060094
:1013500000047800de0007000800780018fc070091
:10136000889fbe008a9fbe008c9fbe006104210042
:10137000328280000200e0000b003a0064814000ed
:101380003282880082828800a100980071828800e1
:10139000214190000204a000a24098006141900009
:1013a0000204a000e2409800670440004244de00ce
:1013b0004244dd00748280008105210089252100de
:1013c000818454002d002000110009008d04d800f4
:1013d000800678000886e8000c0646008001eb00d5
:1013e00002003700130020000b027800a440900098
:1013f0000108a300020032000a003700120a780038
:1014000014017800a24090000108a300fbff320005
:1014100088004200810f5100020039000800e000fe
:1014200042003d00940578000b00a100848f550018
:10143000edff3e00e18f5100eaff3a008d0f5400ae
:1014400002003600890f5400140039006141b800d1
:101450006148b900b4ff2f000500200000005200d1
:1014600081805a00800f5100818f590002003500a1
:10147000640544000a00370080052100ba252100d8
:101480000005550008054500110009000985d80030
:101490000980b90000057800010037000c057800cc
:1014a0000a007800cefb0700e10f400005003a007b
:1014b000640544000a007800c9fb0700e10f400002
:1014c0002b003200818280008008780081828000b9
:1014d000e481400021419000830f5000020032005f
:1014e0000204a000010037000204a100a2409800fd
:1014f000640555000a0540000a0878008a828800c1
:1015000061042100010d780082828000a2409000d9
:101510000104a00021419800a04090000104a10016
:10152000214098008001eb00afff370071828800f6
:10153000810f5100070036001101be009282880021
:10154000a3828800940878000041eb00718280003b
:10155000a240980073828000030a7800a4409000a3
:101560000104a000214298006400420001003700fd
:101570000000eb004f06be004f05be004f04be004a
:10158000000006000000e000080032006400500087
:1015900071828000810f500001003100708288004c
:1015a000a04090000104a100214098000000060026
:1015b000889fbe008a9fbe000004be000900e000b4
:1015c00007003a000000eb000800e000360032009f
:1015d00008007800ebff07000000eb003200370046
:1015e0000800e00003003a00090078005cff0700f3
:1015f0002d003700640054009005780068f89700cb
:101600000008a3000200320008007800ddff070098
:101610000900780052ff0700800478000000eb000a
:101620000900e00020003200888f54001b003200c7
:1016300069bd97000905550042d5de008885550033
:10164000c2ddde000a0178008b0f55000100360074
:101650000b0178004211dd00880078000900780055
:1016600014000700888f54000e0031004255dd0041
:101670000a854400880f55000a003600080455000a
:1016800042c4de004244dd000884440090828000b1
:10169000a1828000008cbe000200370008007800a4
:1016a00001003700090078004f05be004f04be005e
:1016b000000006008001780002003700b159780070
:1016c0000201e9000200e000fcff3a000000060011
:0416d0000000060010
:020000040000fa
:1016d4000400fa00000f7800110798001e0078003b
:1016e400e30f500061003200e30f500005003e009c
:1016f400e10f500027003200e10f500040003e008f
:1017040009003700e50f50008e003200e50f50004d
:1017140071003900e60f5000a5003200e70f5000b9
:10172400be003200d80037001e009000e10f5000c8
:101734000d003600201680004600de006140600087
:101744000004a200614060000080fb0061006000b2
:101754004600dd00211680000160a1000100700038
:1017640020168800180137001e0090000040780001
:10177400614060000080fb00610060004600dd0005
:10178400211680000160a10001007000201688006d
:101794000d0137001e009000e10f50000d003600cf
:1017a400201680004700de00614060000004a200b3
:1017b400614060000080fb00610060004700dd00c4
:1017c400211680000170a10001007000201688001d
:1017d400fd0037001e00900000407800614060006a
:1017e4000080fb00610060004700dd0021168000de
:1017f4000170a1000100700020168800f20037007b
:101804001e009000e10f50000d00360020168000ed
:101814004900de00614060000004a20061406000f5
:101824000080fb00610060004900dd00211680009b
:101834000190a1000100700020168800e20037002a
:101844001e00900000407800614060000080fb00b2
:10185400610060004900dd00211680000190a100b4
:101864000100700020168800d70037001e00900089
:10187400e10f50000d003600201680004c00de0001
:10188400614060000004a200614060000080fb0031
:10189400610060004c00dd002116800001c0a10041
:1018a4000100700020168800c70037001e00900059
:1018b40000407800614060000080fb00610060002f
:1018c4004c00dd002116800001c0a1000100700061
:1018d40020168800bc0037001e009000e10f500065
:1018e4000d003600201680004a00de0061406000d2
:1018f4000004a200614060000080fb006100600001
:101904004a00dd002116800001a0a1000100700042
:1019140020168800ac0037001e00900000407800bc
:10192400614060000080fb00610060004a00dd004f
:101934002116800001a0a10001007000201688007b
:10194400a10037001e009000e10f50000d0036008a
:10195400201680004d00de00614060000004a200fb
:10196400614060000080fb00610060004d00dd000c
:101974002116800001d0a10001007000201688000b
:10198400910037001e009000004078006140600024
:101994000080fb00610060004d00dd002116800026
:1019a40001d0a100010070002016880086003700d5
:1019b4001e009000e10f50000d003600201680003c
:1019c4004e00de00614060000004a200614060003f
:1019d4000080fb00610060004e00dd0021168000e5
:1019e40001e0a10001007000201688007600370095
:1019f4001e00900000407800614060000080fb0001
:101a0400610060004e00dd002116800001e0a100ad
:101a140001007000201688006b0037001e00900043
:101a2400e10f50000d003600201680004f00de004c
:101a3400004078000004a200614060000080fb00c8
:101a44004f00dd0022168000f1ff270081006100b5
:101a540001007000201688005b0037001e00900013
:101a640000407800614060000080fb004f00dd0012
:101a740022168000f1ff2700810061000100700040
:101a840020168800500037001e00900000407800a7
:101a9400614060000080fb004f00dd0022168000e2
:101aa400f1ff27008100610001007000201688000a
:101ab400201680004f00de00004078000080fb000c
:101ac400610060004e00dd002116800001e0a100ed
:101ad4000100700020168800201680004e00de00f1
:101ae400614060000080fb00610060004d00dd008b
:101af4002116800001d0a10001007000201688008a
:101b0400201680004d00de00614060000080fb0074
:101b1400610060004a00dd002116800001a0a100e0
:101b24000100700020168800201680004a00de00a4
:101b3400614060000080fb00610060004c00dd003b
:101b44002116800001c0a100010070002016880049
:101b5400201680004c00de00614060000080fb0025
:101b6400610060004900dd00211680000190a100a1
:101b74000100700020168800201680004900de0055
:101b8400614060000080fb00610060004700dd00f0
:101b9400211680000170a100010070002016880049
:101ba400201680004700de00614060000080fb00da
:101bb400610060004600dd00211680000160a10084
:101bc40001007000201688000080fa000000060062
:101bd4000000fa00c4c2a900c4e2a900c522a900f9
:101be400c582a900c542a900c5a2a900c5c2a90011
:101bf400c5e2a9000080fa00000006000200fa0015
:101c0400000f78001e007800e10f50000d00360030
:101c1400801680004200de00614060000004a200e3
:101c2400614060000080fb00610060004200dd0054
:101c3400811680000120a100010070008016880038
:101c44000a0037001e007800004078006140600000
:101c54000080fb00610060004200dd00811680000e
:101c64000120a10001007000801688000080fa00a5
:101c7400000006000200fa00000f78001e00780041
:101c8400e10f50000d003600801680000000d100e6
:101c9400614060000004a200614060000080fb001d
:101ca4006100600000004000811680000110a10066
:101cb40001007000801688000a0037001e007800ba
:101cc40000407800614060000080fb00610060001b
:101cd40000004000811680000110a1000100700086
:101ce400801688000080fa00000006000000fa0058
:101cf400201680004600de006140600000c0ea005b
:101d0400614060000080fb00610060004600dd006f
:101d1400211680000160a1000100700020168800d7
:101d2400201680004700de006140600000c0ea0029
:101d3400614060000080fb00610060004700dd003e
:101d4400211680000170a100010070002016880097
:101d5400201680004900de006140600000c0ea00f7
:101d6400614060000080fb00610060004900dd000c
:101d7400211680000190a100010070002016880047
:101d8400201680004c00de006140600000c0ea00c4
:101d9400614060000080fb00610060004c00dd00d9
:101da4002116800001c0a1000100700020168800e7
:101db400201680004a00de006140600000c0ea0096
:101dc400614060000080fb00610060004a00dd00ab
:101dd4002116800001a0a1000100700020168800d7
:101de400201680004d00de006140600000c0ea0063
:101df400614060000080fb00610060004d00dd0078
:101e04002116800001d0a100010070002016880076
:101e1400201680004e00de006140600000c0ea0031
:101e2400614060000080fb00610060004e00dd0046
:101e34002116800001e0a100010070002016880036
:101e4400201680004f00de000040780000c0ea0049
:101e5400614060000080fb004f00dd00221680001e
:101e6400f1ff270081006100010070002016880046
:101e74000080fa00000006000000fa00201680002e
:101e84004600de006140600000c0ea00614060007e
:101e94000080fb00610060004600dd002116800028
:101ea4000160a10001007000201688000080fa0083
:101eb400000006000000fa00201680004700de0043
:101ec4006140600000c0ea00614060000080fb00e7
:101ed400610060004700dd00211680000170a10050
:101ee40001007000201688000080fa00000006003f
:101ef4000000fa00201680004900de006140600006
:101f040000c0ea00614060000080fb0061006000e6
:101f14004900dd00211680000190a100010070003d
:101f2400201688000080fa00000006000000fa0075
:101f3400201680004c00de006140600000c0ea0012
:101f4400614060000080fb00610060004c00dd0027
:101f54002116800001c0a100010070002016880035
:101f64000080fa00000006000000fa00201680003d
:101f74004a00de006140600000c0ea006140600089
:101f84000080fb00610060004a00dd002116800033
:101f940001a0a10001007000201688000080fa0052
:101fa400000006000000fa00201680004d00de004c
:101fb4006140600000c0ea00614060000080fb00f6
:101fc400610060004d00dd002116800001d0a100f9
:101fd40001007000201688000080fa00000006004e
:101fe4000000fa00201680004e00de006140600010
:101ff40000c0ea00614060000080fb0061006000f6
:102004004e00dd002116800001e0a10001007000f7
:10201400201688000080fa00000006000000fa0084
:10202400201680004f00de000040780000c0ea0067
:10203400614060000080fb004f00dd00221680003c
:10204400f1ff270081006100010070002016880064
:102054000080fa00000006000200fa00000f780079
:102064009e00780080e72000b30507000080fa0096
:10207400000006000000fa0080e72000dd050700ec
:102084000080fa00000006000200fa00000f780049
:102094001e0078000000e000030035009e00780078
:1020a40080e72000f90507000080fa000000060020
:1020b4000000fa00c8c8bf000004e0000b003a00aa
:1020c4008000eb007000200081fd0700c8c8bf003d
:1020d4000080fb00110020007dfd0700c8c8bf0080
:1020e4000040e800c8e8b7001a003700c8c8bf00bd
:1020f400e74f50000b003a00c8c8bf000080fb0047
:102104000000e9008000eb0071fd0700c8c8bf00b3
:102114000080fb00110020006dfd0700c868ef007f
:102124000c003700c8c8bf000080fb000000e900b5
:102134008000eb0066fd0700c8c8bf000080fb00fc
:102144001100200062fd0700c8c8bf000040e8007d
:10215400c8e8b7000080fa00000006000000fa009a
:10216400c7c8bf000080fb00e20f50001700320018
:10217400e20f500005003c000000e00008003200bf
:10218400e10f50000a00320022003700e30f500034
:1021940015003200e40f50001a0032001d00370011
:1021a400210020000000eb0049fd07001900370062
:1021b400210020001000200045fd07002100200020
:1021c4007000200042fd07001200370021002000ab
:1021d400200020003efd07002100200060002000b8
:1021e4003bfd07000b0037002100200030002000d9
:1021f40037fd0700210020005000200034fd0700b7
:1022040004003700210020004000200030fd0700ba
:1022140000000000c7c8bf00e34f500004003e00a8
:10222400c7c8bf000040e800c7e8b7000100370096
:10223400c768ef000080fa00000006000000fa0002
:10224400c6c8bf000004e0000e003a00e6c8bf00a4
:102254000004e0000b00320010c0b300c6e8b70071
:102264008000eb000000eb0019fd0700c6c8bf00aa
:102274000080fb001100200015fd0700e668ef0058
:1022840029003700c6c8bf000004e0000f003a0070
:10229400e6c8bf000004e0000c003a0070c0b300c0
:1022a400c6e8b7008000eb000000eb0008fd070063
:1022b400c6c8bf000080fb001100200004fd070019
:1022c40010c0b300e6e8b70017003700c6c8bf0067
:1022d400e74f500009003a00c668ef008000eb00a9
:1022e40070002000fafc0700c6c8bf000080fb0095
:1022f40011002000f6fc07000b003700c6c8bf0021
:10230400e14f500008003a00c668ef008000eb007f
:1023140010002000eefc0700c6c8bf000080fb00d0
:1023240011002000eafc07000080fa00000006000b
:102334000000fa00c5c8bf000080fb00e10f500098
:1023440011003200e10f500003003c000000e000e7
:102354000600320018003700e20f5000110032006e
:10236400e30f500013003200130037002100200057
:102374000000eb00d6fc07002100200040002000f4
:10238400d3fc07000c0037002100200010002000bf
:10239400cffc07002100200030002000ccfc070007
:1023a400050037002100200020002000c8fc0700a1
:1023b4000100370006fe0700c5c8bf00e24f500009
:1023c40004003e00c5c8bf000040e800c5e8b700ef
:1023d40001003700c568ef000080fa000000060025
:1023e4000000fa00c4c8bf000080fb00e10f5000e9
:1023f40011003200e10f500003003c000000e00037
:102404000600320018003700e20f500011003200bd
:10241400e30f5000130032001300370021002000a6
:102424000000eb00aafc070021002000400020006f
:10243400a7fc07000c0037002100200070002000da
:10244400a3fc07002100200050002000a0fc07008e
:102454000500370021002000600020009cfc0700dc
:1024640001003700dafd0700c4c8bf00e24f500086
:1024740004003e00c4c8bf000040e800c4e8b70040
:1024840001003700c468ef000080fa000000060075
:102494000200fa00004f78001e407800e14f50001f
:1024a40003003a0010c0b300c0e8b70001003700d1
:1024b400c068ef00a022ef00a222ef00a422ef00e8
:1024c400a622ef00a802a800a822a800a842a900fa
:1024d400a862a900a882a900a8a2a900a8c2a9006c
:1024e400a8e2a900a902a900a922a900a942a90059
:1024f400a962a900a982a900a9a2a900a9c2a90048
:10250400a9e2a900aa02a900aa22a900aa42a80035
:10251400aa62a800aa82a800aaa2a900aac2a90025
:10252400aae2a900ab02a900ab22a900ab42a90010
:10253400ab62a900ab82a900aba2a900abc2a900ff
:10254400abe2a90001158000f0cf2f0000806000ed
:1025540000158800a042a80001158000000e20008c
:1025640001007000001588001115800030fc2f0058
:10257400008060000030a00010158800a342a8006d
:1025840021158000f00f2e00008060000080a00064
:1025940020158800c0c8bf000004e0000600320017
:1025a4002115800000fc2f00008060003001b30082
:1025b40020158800060037002115800000fc2f003c
:1025c40080806000700220000100700020158800e7
:1025d4008560a9008d60a800a1e2a800c0c8bf0062
:1025e4000004e00005003a0000000000e14580001e
:1025f40000032000808f5000fbff36000080fa00ab
:1026040000000600809fbe00829fbe003400f800d8
:1026140000002000a00188000200fa00be68ef005c
:10262400bf68ef008560a900c0c8bf000004e000d7
:102634002700320000282000000f7800d0458000d9
:102644009e0078009100780000014000a08e2000d8
:1026540000004100010878001e8fe800d04580008a
:102664009e007800910078000010b0000001400046
:10267400a08e200000004100010878001e8fe800b1
:10268400d04580009e007800910078000020b000c2
:1026940000014000a08e20000000410001087800e5
:1026a4001e8fe800d04580000000e800d045880077
:1026b400d1458000f00f2000808f50004201360089
:1026c400ba28ef0010c0b300bfe8b7003e013700de
:1026d400c0012000501588001115800030fc2f0027
:1026e400008060000030a0001015880021158000d3
:1026f40000fc2f0080806000700220000100700048
:1027040020158800118c200091407800d0c3b300bc
:1027140080cf50000d003a00c00f200050158800f3
:102724001115800030fc2f00008060004001b300d0
:10273400101588002115800000fc2f000080600027
:102744003001b3002015880051003700118c20009f
:1027540091407800e0c3b30080cf500025003a00d8
:102764001115800030fc2f00008060000040a000a4
:10277400101588002115800000fc2f0000806000e7
:102784007001b30020158800c2c8bf000080fb00a0
:10279400e10f50000d003200e10f500003003c0037
:1027a4000000e0000600320039003700e20f50005c
:1027b40009003200e30f50000b00320034003700f0
:1027c400c01121005015880031003700c0212200bb
:1027d400501588002e003700c04124005015880091
:1027e400000000002a003700c0812800501588002e
:1027f40027003700c1c8bf00e24f500024003a0050
:102804001115800030fc2f00008060000040a00003
:10281400101588002115800000fc2f000080600046
:102824007001b30020158800c2c8bf000080fb00ff
:10283400e10f50000d003200e10f500003003c0096
:102844000000e0000600320011003700e20f5000e3
:1028540009003200e30f50000a0032000c00370078
:10286400c01121005015880009003700c021220042
:102874005015880006003700c04124005015880018
:1028840003003700c08128005015880000000000b4
:1028940000282000000f7800d04580009e007800ba
:1028a4009100780000014000a08e2000000041004b
:1028b400010878001e8fe800d04580009e00780053
:1028c400910078000010b00000014000a08e2000ac
:1028d40000004100010878001e8fe800d045800008
:1028e4009e007800910078000020b00000014000b4
:1028f400a08e200000004100010878001e8fe8002f
:10290400d04580000000e800d0458800d145800013
:10291400f00f2000808f500001003600ba28ef002d
:10292400118c200091407800e0c3b30080cf5000a8
:1029340022003a00e04580000000e800e0458800fd
:10294400e145800010032000808f50000100360014
:10295400bc28ef00e04580009e00780091007800dc
:1029640000014000a0ee20000000410001087800b2
:102974001e8fe800e04580009e00780091007800fa
:102984002003b00000014000a0ee20000000410040
:10299400010878001e8fe800e04580009e00780062
:1029a400910078004006b00000014000a0ee200035
:1029b400000041000108780074003700118c2000e9
:1029c40091407800f0c3b30080cf500033003a0048
:1029d400c2c8bf000080fb00e10f500013003200aa
:1029e400e10f500003003c000000e000060032004c
:1029f40066003700e20f500015003200e30f50006c
:102a04001d003200610037001e00780010007800bd
:102a1400b08088001e8fe8001e0078001000780047
:102a2400f0808800e2e2a800580037001e00780019
:102a340010007800c08088001e8fe8001e00780017
:102a44001000780000818800e302a8004f003700de
:102a54001e00780010007800d08088001e8fe800e7
:102a64001e0078001000780010818800e802a80099
:102a740000000000450037001e00780010007800b8
:102a8400e08088001e8fe8001e00780010007800a7
:102a940020818800e822a8003c003700c1c8bf009c
:102aa400e34f500039003a00c2c8bf000080fb0069
:102ab400e10f500015003200e10f500003003c000c
:102ac4000000e0000600320030003700e20f500042
:102ad40019003200e30f5000220032002b003700af
:102ae4001e00780010007800308188001e8fe800f6
:102af4001e0078001000780070818800e2e2a900ce
:102b040010c0b300c2e8b700200037001e007800f0
:102b140010007800408188001e8fe8001e007800b5
:102b24001000780080818800e302a90020c0b3006f
:102b3400c2e8b700150037001e00780010007800c6
:102b4400508188001e8fe8001e0078001000780075
:102b540090818800e802a90030c0b300c2e8b70041
:102b64000a0037001e007800100078006081880099
:102b74001e8fe8001e00780010007800a0818800f5
:102b8400e822a900c268ef0000000000118c2000b8
:102b9400914078008181fb0010c0b300f203200053
:102ba400828f510001003c000040eb008140e800ae
:102bb40081417800128c2000034978000004e00071
:102bc40001003200c168ef0010c0b300bee8b700d6
:102bd4000080fa003400f9004f01be004f00be002f
:102be400004006000000fa00bec8bf000080fa00e2
:102bf400000006000000fa00bfc8bf000080fa0011
:102c0400000006000000fa00a1e2a8000080fa001b
:102c1400000006000000fa00a1e2a9000080fa000a
:102c2400000006000000fa00c04580000000e0003b
:102c3400190032005145800080da2f00808f500047
:102c4400150035005145800080252000808f5000fc
:102c540011003c00d602a900d622a900d642a90040
:102c6400d662a900b828ef005045800000f0a70004
:102c74000000ea000171220000017800110009003f
:102c84008200d8006f00500080007800406121006d
:102c9400fe02070047003700504580000000e000b6
:102ca4000c003400904580000000e8009045880046
:102cb400704580000000e900704588007045800080
:102cc4000000e0000d003d00300020007045880049
:102cd4000a003700904580000000e9009045880014
:102ce400704580000000e800704588007045800051
:102cf400e30f500001003400ae28ef00704580005f
:102d0400e10f50000f003200e10f500003003c00bf
:102d14000000e0000600320019003700e20f500006
:102d24000d003200e30f5000100032001400370091
:102d3400d602a900d622a800d642a900d662a800cd
:102d44000f003700d602a900d622a800d642a80058
:102d5400d662a9000a003700d602a800d622a9002c
:102d6400d642a800d662a90005003700d602a80002
:102d7400d622a900d642a900d662a800000000000d
:102d84005145800080da2f00808f50000900350003
:102d94005145800080252000808f500005003c00b4
:102da40010002000c0458800f1002000406121008f
:102db400b60207000080fa00000006000000fa00d6
:102dc400b04580000000e000190032006145800039
:102dd40080da2f00808f5000150035006145800097
:102de40080252000808f500011003c00d682a9006d
:102df400d6a2a900d6c2a900d6e2a900b628ef003f
:102e04006045800000f0a7000000ea000171220084
:102e140000017800110009008200d8006f00500002
:102e240080007800006e21009802070047003700f8
:102e3400604580000000e0000c003d00a0458000db
:102e44000000e900a0458800804580000000e900fa
:102e540080458800804580000000e0000d003d00b2
:102e640030002000804588000a003700a04580001b
:102e74000000e800a0458800804580000000e800cc
:102e84008045880080458000e30f50000100340035
:102e9400b028ef0080458000e10f50000f003200a1
:102ea400e10f500003003c000000e0000600320087
:102eb40019003700e20f50000d003200e30f5000fc
:102ec4001000320014003700d682a900d6a2a80050
:102ed400d6c2a900d6e2a8000f003700d682a90006
:102ee400d6a2a800d6c2a800d6e2a9000a003700dc
:102ef400d682a800d6a2a900d6c2a800d6e2a9000c
:102f040005003700d682a800d6a2a900d6c2a9001f
:102f1400d6e2a800000000006145800080da2f009e
:102f2400808f500009003500614580008025200015
:102f3400808f500005003c0010002000b045880040
:102f4400f1002000006e2100500207000080fa000a
:102f5400000006000000fa008000eb004061210040
:102f6400f50107008000eb00006e2100f20107006c
:102f74000080fa00000006000200fa00000f78004a
:102f84001e0078000000e00009003a00aa28ef00c3
:102f94008000eb00406121003c020700d602a9003a
:102fa400d622a900d642a900d662a900340037006f
:102fb40080c12f009e007800808f50000b003d00e0
:102fc40080c12f005045880050458000018f2d009e
:102fd40000017800110009008200d8008000780008
:102fe400406121002902070025003700803e2000af
:102ff4009e007800808f50000b003400803e20003b
:10300400504588005045800001712200000178007d
:10301400110009008200d80080007800406121007e
:103024001a020700160037009e00780051458800f8
:103034001e0078000000e00009003d00018f2d0013
:103044001e00780000017800110009008200d800f9
:1030540080007800406121000c020700080037005e
:10306400017122001e00780000017800110009009f
:103074008200d8008000780040612100030207002c
:103084000080fa00000006000200fa00000f780039
:103094001e0078000000e00009003a00ac28ef00b0
:1030a4008000eb00006e2100f8010700d682a90021
:1030b400d6a2a900d6c2a900d6e2a90034003700de
:1030c40080c12f009e007800808f50000b003d00cf
:1030d40080c12f006045880060458000018f2d006d
:1030e40000017800110009008200d80080007800f7
:1030f400006e2100e501070025003700803e200016
:103104009e007800808f50000b003400803e200029
:10311400604588006045800001712200000178004c
:10312400110009008200d80080007800006e2100a0
:10313400d6010700160037009e007800614588001c
:103144001e0078000000e00009003d00018f2d0002
:103154001e00780000017800110009008200d800e8
:1031640080007800006e2100c801070008003700c5
:10317400017122001e00780000017800110009008e
:103184008200d80080007800006e2100bf01070093
:103194000080fa00000006000400fa00000f780026
:1031a400110798001e0078008000780001f0a70045
:1031b4008100ea001e00900000f0a7000000ea0071
:1031c40080804000803e2000808f500007003c003b
:1031d4001e0090001e00100067ff07001e009000f4
:1031e4001e004000a8ff0700010037000000000097
:1031f4000080fa00000006000000fa0090458000fc
:103204000080fa00000006000200fa00000f7800b7
:103214009e007800914588000080fa0000000600b6
:103224000000fa00a04580000080fa0000000600bb
:103234000200fa00000f78009e007800a145880083
:103244000080fa00000006000a00fa00889fbe0011
:103254001007980021079800320798004307980048
:103264008828ef002f003700404480000000e00071
:1032740003003a0010002000000f78000c00370013
:10328400404480000000e900cf80de00e7f407003e
:103294000004be004e009000cf80de00e3f407007f
:1032a4000801be0037f50700bff40700000f7800df
:1032b4004044800064001000000040009e00900024
:1032c40000814000be0090001e0078000088b90014
:1032d4000000780000097800404480006400100079
:1032e40000004000ae009000008140004e009000bd
:1032f4008000ea00404480006400100000004000a8
:103304009e01900000804100100078000088b90000
:103314000000780000097800404480000000e800c4
:103324004044880040448000e30f5000ceff340046
:103334004f04be000080fa00000006000400fa00fa
:10334400000f7800110798001e0090009e0f500097
:10335400020034001e007800070037009e00ea00d7
:103364001e009000808f5000020034001e00ea000e
:10337400010037001e0090000080fa0000000600e3
:103384000400fa00000f7800110798001e0078006e
:103394000000e00003003a001e0090003aff07001e
:1033a400020037001e009000f3fe07000080fa00c0
:1033b400000006000000fa00889fbe008a9fbe003d
:1033c4008828ef00b100370040448000c188200005
:1033d4004200dd00008140006000b8000089be00aa
:1033e4008a28ef0066003700404480000000e000b7
:1033f4002f003a004a44800040448000c1882000e5
:103404004200dd00008040001004be0050448000f3
:10341400a189200000004000008040009005780051
:10342400504480002802070000d8b900000078004a
:10343400cf80de000800400089804800c388200057
:103444004251dd00028141000089be004a448000ef
:1034540040448000c18820004200dd00008040001c
:103464001004be005044800064001000218a200033
:103474000000400000804000900578005044800027
:10348400680010001002070000d8b900000078009e
:10349400cf80de000800400089804800c3882000f7
:1034a4004251dd00028141000089be003100370035
:1034b40040448000e10f50002e003a004a4480004e
:1034c40040448000c18820004200dd0000804000ac
:1034d4001004be0050448000218a200000004000f7
:1034e400008040009005780050448000f6010700f9
:1034f40000d8b90000007800cf80de00080040004a
:1035040089804800c38820004251dd0002814100c7
:103514000089be004a44800040448000c1882000e5
:103524004200dd00008040001004be0050448000d2
:1035340064001000a18920000000400000804000c9
:10354400900578005044800068001000de010700f8
:1035540000d8b90000007800cf80de0008004000e9
:1035640089804800c38820004251dd000281410067
:103574000089be00504480000000e80050448800e8
:1035840050448000e30f500097ff34004044800013
:10359400c18820004200dd00008040001000be0011
:1035a400e00f5000e08f58001100350048448000bf
:1035b40040448000c18820004200dd0000804000bb
:1035c4001000be005200200003002000e7f30700b3
:1035d400000078008025b0008000780008014400d5
:1035e40040892000000041000108780010003700e5
:1035f4004844800040448000c18820004200dd002f
:10360400008040001000be00520020000300200093
:10361400d6f30700000078008025b1008000780010
:10362400080144004089200000004100010878009e
:1036340048448000404480008000400040892000cd
:10364400008040001000780080007800803e200058
:103654003aff07000801440041892000810041002d
:1036640080087800404480008000400040892000a9
:1036740000804000900078004044800040ff070034
:10368400404480000000e80040448800404480003a
:10369400e10f50004cff34004f05be004f04be0044
:1036a4000080fa00000006000000fa0011478000c4
:1036b400004780008101780000017800218a200001
:1036c400a0892000e0fe0700310307000040eb0062
:1036d4006ffb070004010700411f2000c09d21006b
:1036e400150007001bfe070001000700ffff37005d
:1036f4000000fa001021ef0081088000f0fc2f0088
:1037040000806000800888000621ef00205c200013
:103714006008880084c0a9008cc0a80011e1a8003a
:103724000080fa00000006000000fa0011e1a90080
:103734000080fa00000006000600fa001007980056
:103744002107980021478000010f78000a00370004
:103754001e007800b00090001e009000808f500082
:1037640002003a0010002000200037001e007800fc
:10377400c0009000010f78001e0078000000e000f7
:10378400f3ff3a00a0002000f4f60700000f7800d1
:103794001e0078000000e00002003a001000200043
:1037a400eaf60700ae0090001e00780001087800d9
:1037b4001e0078008000eb00110098001e007800c5
:1037c40011c0b300414098001e0078009e00900094
:1037d40031009800214780001e00780041009800c5
:1037e4009e00780021478800100020000080fa0025
:1037f400000006000600fa00200798000000eb0015
:10380400000f780021478000110798001900370045
:103814001e009000b00090002e009000808f500099
:103824000f003a001e0078000000e000050032009e
:103834001e009000c00090001e0078004100980017
:10384400030037001e0090004000900020478800cd
:103854001e0090004af707001000200009003700fe
:103864009e009000010f78001e009000c0009000a0
:10387400110798001e0090000000e000e4ff3a00e9
:10388400200020000080fa00000006000600fa0074
:10389400100798002107980021478000010f780045
:1038a4000d0037001e007800b00090001e0090004c
:1038b400808f500005003a00ae0090001e00780092
:1038c4000108780010002000070037001e0078006f
:1038d400c0009000010f78001e0078000000e00096
:1038e400f0ff3a00200020000080fa0000000600eb
:1038f4000400fa001007980021478000010f7800a7
:103904000d0037001e007800b00090001e009000eb
:10391400808f500005003a001e0078008000eb0004
:103924001100980010002000070037001e007800e6
:10393400c0009000010f78001e0078000000e00035
:10394400f0ff3a00200020000080fa00000006008a
:103954000400fa001007980021478000010f780046
:103964000d0037001e007800b00090001e0090008b
:10397400808f500005003a001e0078008040eb0064
:103984004140980010002000070037001e00780016
:10399400c0009000010f78001e0078000000e000d5
:1039a400f0ff3a00200020000080fa00000006002a
:1039b4000400fa001007980021478000010f7800e6
:1039c4000d0037001e007800b00090001e0090002b
:1039d400808f500005003a001e00780011c0b3002b
:1039e4004140980010002000070037001e007800b6
:1039f400c0009000010f78001e0078000000e00075
:103a0400f0ff3a00200020000080fa0000000600c9
:103a14003600f800809fbe00829fbe00849fbe00d7
:103a2400869fbe003400f80000002000a00188003a
:103a34000200fa0021478000010f780084c0a90029
:103a44001e0037001e00780040409000e14f5000f7
:103a540017003a001e007800100078000000e00013
:103a6400130032001e007800100090008000e8006f
:103a74001e007800110098001e00780010009000cd
:103a8400800078001e007800100078000000e90033
:103a9400808f5000060036001e0078003000900031
:103aa400000001001e0078008000eb001100980067
:103ab4001e007800c0009000010f78001e007800fe
:103ac4000000e000dfff3a000080fa003400f90053
:103ad4004f03be004f02be004f01be004f00be00a8
:103ae4003600f900004006002800fa00889fbe0056
:103af4000000eb00000f78000000eb0010079800b6
:103b04000d0037001e007800800040006003210093
:103b1400008040008000eb00010878001e0078005f
:103b24004200dd0000004700680140006000b8006a
:103b34000089be001e0fe8001e007800e70f500049
:103b4400f0ff34002a0037000000eb00000f78007b
:103b5400210037001e0078004200dd00e800470025
:103b6400008040001004be001e00780042000700e0
:103b7400cf80de0008004000898048001e017800e4
:103b84004211dd0002014700680141000089be00c6
:103b94006000b8002007980031079800060037003d
:103ba4002e009000be00900061004000e0804800bc
:103bb40020079800310798002e019000be01900064
:103bc400703e200001002000800f5100818f5900b9
:103bd400f3ff34001e0fe8001e007800e70f5000ca
:103be400dcff34001e0090000000e800100798007d
:103bf4009e00900030062000808f5000d2ff3400d9
:103c04000000eb00000f7800150037001e0078005c
:103c14004200dd00e8004700008040001000be00c4
:103c240082f207000004be001e009000cf80de0078
:103c34007ef207000001be000800be0009f2070082
:103c440059f20700800078001e007800000140004f
:103c54006003210000004100010878001e0fe80005
:103c64001e007800e70f5000e8ff34004f04be0048
:103c74000080fa00000006000200fa00000f78003d
:103c84001e007800e70f5000020036000000eb0031
:103c94000b0037001e007800800040006001210006
:103ca40000804000900078001e0078000001400071
:103cb40060022100000041001000780000805000e4
:103cc4000080fa00000006000400fa0010079800c3
:103cd4001e009000e70f5000020036000000eb00c9
:103ce400170037001e009000800040006001210092
:103cf40000804000900078001e0090000001400009
:103d04006002210000004100100078008080500013
:103d14001e009000000140006003210000004100eb
:103d240010007800008f50001e0078000000e000b2
:103d3400020034001e007800010037000000eb0090
:103d44000080fa00000006000200fa00000f78006c
:103d54001e007800e70f5000020036000000eb0060
:103d6400050037001e00780080004000600121003b
:103d740000804000100078000080fa000000060077
:103d84000000fa00dec2a8008200a8008400a90096
:103d94008c00a8000080fa00000006003600f8003d
:103da400809fbe00829fbe00849fbe00869fbe008f
:103db4003400f80000002000a00188000000fa0090
:103dc4008c00a9005101200040f021005afe070098
:103dd400cb68ef00cbc8bf00cae8b700cac8bf00b1
:103de400cce8b7000080fa003400f9004f03be00ad
:103df4004f02be004f01be004f00be003600f90066
:103e0400004006000200fa00f0468000e10f400086
:103e140016003a00011780000004200000806000b2
:103e24000000e000070032008c00a8008400a90014
:103e340040f021006ffe07000080eb00f046880090
:103e4400500037009100200040f021008ffe070051
:103e5400cb68ef00cbc8bf00cae8b700cac8bf0030
:103e6400cce8b700de28ef0046003700f0468000bb
:103e7400e10f500008003a00001780004600de0001
:103e840061406000cce8b7002101200040f021002f
:103e94007efe07003b003700f0468000e10f500033
:103ea40010003400f0468000e60f50000d003c0086
:103eb400001780004600de0061406000004f78007b
:103ec4009e80fb00f0468000660010000008dd00c4
:103ed400004f7800cac8bf001e404000cae8b700bf
:103ee40028003700f0468000e60f5000130034002d
:103ef400f0468000ec0f500010003c0000178000da
:103f04004600de0061406000104798001e409000ab
:103f14008080fb00f04680006c0010000008dd008b
:103f240010479800b18c2000914078001e4090000a
:103f340000c04000cbe8b70012003700f046800014
:103f4400ed0f50000f003a008000eb00100020003d
:103f5400dff507008c00a8008400a90040f02100d0
:103f640024fe07000080eb00f0468800ccc8bf00a8
:103f7400dce8b700cac8bf00cde8b700cbc8bf00b3
:103f8400cee8b700f0468000e10f400003003200a5
:103f9400f04680000000e800f04688000080fa0047
:103fa400000006000000fa00dcc8bf000080fa0030
:103fb400000006000000fa00cdc8bf000080fa002f
:103fc400000006000000fa00cec8bf000080fa001e
:103fd400000006000000fa00ed0007000040eb00be
:103fe4002bf90700faf60700dafb0700c0fd07000b
:103ff400100020001ff707005f000700fcff3700d8
:104004000800fa0020079800310798006000b80003
:10401400008fbe00040037001200200003002000bf
:104024001e0f41005e9749002e009000be009000d4
:104034001e01be00800f5100818f5900f6ff35002c
:104044000080fa00000006000000fa00301780002b
:104054004600de00614060008080fb003017800075
:104064004800de00614060000081fb0030178000e2
:104074004900de00614060000080fb000000400059
:10408400000041000000400000017800301780006b
:104094004700de00614060000080fb00000041003a
:1040a40000004000008040000080fa00000006008c
:1040b4000000fa0010002000d0f6070000242400bd
:1040c400f1002000ceff07000000eb00cbf6070054
:1040d40000242400f1002000c9ff07000080fa003a
:1040e400000006000600fa00a0182000100798003f
:1040f400d5ff0700200798002e0090000000e00084
:10410400170034000000eb00000f78000b003700ac
:1041140010002000b9f6070000122a0071002000e8
:10412400b7ff07000000eb00b4f6070000122a00f6
:1041340071002000b2ff07001e0fe8002e0090005f
:104144009e007800808f5000f1ff35001e00900023
:1041540089fb07001e009000cbfb0700040037001a
:104164000000eb0084fb07000000eb00c6fb070027
:104174000080fa00000006000200fa00b2ff070007
:10418400000f78001e0078000000e00002003a00f2
:1041940045fd07000b0037001e007800e10f5000ba
:1041a40002003a00c2ff0700060037001e00780034
:1041b400e20f500002003a00caff07000100370076
:1041c40039fd07000080fa00000006000000fa0034
:0841d4000080fa000000060063
:020000040000fa
:1041dc00e40800000200000000000000c408000019
:1041ec000600000000000000e608000002000000cd
:1041fc000200000001000000aa08000010000000ee
:10420c0000000000ca0800000600000000000000ca
:10421c00dc08000004000000020000000200ff00a7
:10422c00ff0000003610000010000000000000002d
:10423c00ea0800004c07000000000000ba0800006b
:10424c000a0000000000000000080000440000000c
:10425c000200000000000000000000000000000050
:10426c000000000000000000000000000000000042
:10427c000000000000000000000000000000000032
:10428c000000000000000000000000000000000022
:10429c000000000000000000000000000000000012
:1042ac000000000000000000000000000000000002
:1042bc00d008000006000000020000000000000012
:1042cc000000000044080000440000000200000050
:1042dc0000000000000000000000000000000000d2
:1042ec0000000000000000000000000000000000c2
:1042fc0000000000000000000000000000000000b2
:10430c0000000000000000000000000000000000a1
:10431c000000000000000000000000000000000091
:10432c00000000000000000000000000d6080000a3
:10433c000600000002000000000000000000000069
:10434c00880800002200000000000000e0080000c7
:10435c000400000002000000030002000000000046
:10436c00e8080000020000000000000046100000f9
:10437c0010000000000000005610000002000000b9
:08438c00000000000000000029
:020000040000fa
:104394000000fa00c4c2a900c4e2a900c522a90011
:1043a400c582a900c542a900c5a2a900c5c2a90029
:1043b400c5e2a900c0c2a900c0e2a900c122a900a7
:1043c400c182a900c142a900c1a2a900c1c2a90019
:1043d400c1e2a900d022a900cc22a900d042a900a0
:1043e400cc42a900e2e2a900e302a900e802a90084
:1043f400e822a900dee2a900df02a900e402a90084
:10440400e422a900e202a900de02a900d602a90062
:10441400d622a900d642a900d662a900d682a90054
:10442400d6a2a900d6c2a900d6e2a900d202a90048
:10443400d222a900d242a900d262a900d282a90044
:10444400d2a2a900d2c2a900d2e2a900d1a2a90095
:10445400cda2a900e842a900e862a900e442a900ab
:10446400e462a900de22a800dec2a800e4c2a8001b
:10447400e4e2a800e502a800e522a800d302a8000f
:10448400d322a800d342a800d362a800d382a800f4
:10449400d3a2a800d3c2a800d3e2a8000080fa00e7
:1044a400000006008540a900809fbe00821f78009e
:1044b400d408e20015003200d008e20016003200f1
:1044c400d208e2001400320081468000420020003d
:1044d4000f22af00feff3700904680000000e0008e
:1044e400070032000000e900d2a8b700314078008c
:1044f40010e2b7000201e900f5ff3a0002003700bc
:10450400d028ef0001003700814688004f01780071
:104514004f00be000040060000002000a0468800b6
:104524004f0178004f00be0000400600d408e200ae
:10453400feff3a008d40a9008100e9009146880001
:10454400b040780081108800804688001100200067
:10455400a14688008d40a80000000600a046800007
:10456400000006008720a900809fbe00821f7800fb
:10457400da08e20015003200d608e2001600320024
:10458400d808e20014003200b14680004200200046
:104594001922af00feff3700c04680000000e00093
:1045a400070032000000e900d8a8b70031407800c5
:1045b4001ae2b7000201e900f5ff3a0002003700f1
:1045c400d628ef0001003700b14688004f0178007b
:1045d4004f00be000040060000002000d0468800c6
:1045e4004f0178004f00be0000400600da08e200e8
:1045f400feff3a008f20a9008100e900c14688002f
:10460400b0407800d1108800b04688001100200026
:10461400d14688008f20a80000000600d046800004
:1046240000000600809fbe008520a9000042800093
:10463400f003b20001802000810040000000eb0084
:1046440012c2bf00804878004028ec004f00be0032
:10465400004006000042800011428000010050002a
:104664000000060001428000124280000208e100be
:1046740008003200f203b2000180200002814000f1
:1046840092407800014878004228ec001000200095
:10469400000006000000eb0000000600809fbe0042
:1046a4008700a90020448000f003b2004184200068
:1046b400810040000000eb001cc2bf00804878006d
:1046c4008428ec004f00be00004006002044800017
:1046d40031448000010050000000060021448000a5
:1046e400324480000208e10008003200f203b20004
:1046f4004184200002814000924078000148780003
:104704008628ec0010002000000006000000eb00ea
:10471400000006000c22ef000e22ef000ee2a900ba
:104724000ec2a9008520a9008d20a8000de2a800d2
:1047340070002000a01088008540a9008d40a800ca
:1047440081e0a900c0048000f1002f000080600017
:104754000155200000804000c00488000fe2a8003a
:104764000f42a8004028ef004228ef000000060096
:104774001622ef001822ef0018e2a90018c2a900bf
:104784008700a9008f00a80017e2a800700020008d
:10479400f01088008720a9008f20a80081e0a900dc
:1047a4000005800001f02f0000806000510520000a
:1047b400008040000005880019e2a8001942a80002
:0c47c4008428ef008628ef0000000600ab
:020000040000fa
:0200000401f009
:04000000e6bf000057
:020000040000fa
:0200000401f009
:04000400ff7f00007a
:020000040000fa
:0200000401f009
:040008007fff000076
:020000040000fa
:0200000401f009
:04001400ffff0000ea
:00000001FF
